:020000040000FA
:10000000D00E00209D010000FB6F0000F76F000084
:1000100000000000000000000000000000000000E0
:10002000000000000000000000000000FD7500005E
:100030000000000000000000FD6F000019DA000061
:10004000AF010000AF010000AF010000AF010000F0
:10005000AF010000AF010000AF010000AF010000E0
:1000600061DE0000AF010000AF010000AF01000041
:10007000AF010000AF010000AF010000AF010000C0
:10008000AF010000AF010000AF010000AF010000B0
:10009000AF010000AF010000AF010000AF010000A0
:1000A00039EF0000AF01000041EF0000AF01000098
:1000B00049EF0000AF010000AF010000AF010000F8
:1000C00000F002F800F03EF80CA030C80838241800
:1000D0002D18A246671EAB4654465D46AC4201D180
:1000E00000F030F87E460F3E0FCCB6460126334274
:1000F00000D0FB1AA246AB4633431847E4FD00008C
:1001000004FE0000103A02D378C878C1FAD852072A
:1001100001D330C830C101D504680C6070470000BD
:100120000023002400250026103A01D378C1FBD813
:10013000520700D330C100D50B6070471FB51FBDFB
:1001400010B510BD00F014F91146FFF7F7FF0FF0DE
:10015000BBFC00F02CF903B4FFF7F2FF03BC00F086
:1001600033F9000070B505460C46164602E00FCC88
:100170000FC5103E102EFAD2082E02D303CC03C5B1
:10018000083E042E07D301CC01C5361F03E02178B9
:100190002970641C6D1C761EF9D270BD074880471B
:1001A00007480047FEE7FEE7FEE7FEE7FEE7FEE75B
:1001B00004480549034A054B7047000059DE00001A
:1001C000C1000000D00A0020D00E0020D00A00207C
:1001D00001E004C0091F0429FBD28B0701D502806E
:1001E000801CC90700D00270704700290BD0C307DC
:1001F00002D00270401C491E022904D3830702D595
:100200000280801C891EE3E70022EEE70022DFE780
:10021000002203098B422CD3030A8B4211D3002303
:100220009C464EE003460B433CD4002243088B42DD
:1002300031D303098B421CD3030A8B4201D394466A
:100240003FE0C3098B4201D3CB01C01A524183095D
:100250008B4201D38B01C01A524143098B4201D317
:100260004B01C01A524103098B4201D30B01C01A42
:100270005241C3088B4201D3CB00C01A52418308BC
:100280008B4201D38B00C01A524143088B4201D3E9
:100290004B00C01A5241411A00D201465241104649
:1002A00070475DE0CA0F00D04942031000D34042BE
:1002B000534000229C4603098B422DD3030A8B42F4
:1002C00012D3FC22890112BA030A8B420CD3890192
:1002D00092118B4208D3890192118B4204D3890178
:1002E0003AD0921100E08909C3098B4201D3CB01B6
:1002F000C01A524183098B4201D38B01C01A52416B
:1003000043098B4201D34B01C01A524103098B426E
:1003100001D30B01C01A5241C3088B4201D3CB0059
:10032000C01A524183088B4201D38B00C01A52413C
:10033000D9D243088B4201D34B00C01A5241411A13
:1003400000D20146634652415B10104601D3404241
:10035000002B00D54942704763465B1000D34042F2
:1003600001B50020C046C04602BD704770477047C7
:10037000754600F025F8AE46050069465346C008AC
:10038000C000854618B020B5FFF712FF60BC0027FB
:100390004908B6460026C0C5C0C5C0C5C0C5C0C551
:1003A000C0C5C0C5C0C5403D49008D46704710B5A9
:1003B0000446C046C0462046FFF7CDFE10BD0000F3
:1003C000004870476C0A002001491820ABBEFEE7C8
:1003D00026000200704700000146024841610120EA
:1003E0007047000000100040002005494968890757
:1003F000C90F002901D0012000E000207047000053
:1004000000100040164840688006800F032804D181
:10041000134800680005000D7047114840688006C9
:10042000800F022804D10E4800680005800DF3E714
:100430000B4840688006800F012804D108480068F6
:100440000005000EE8E7064840688006800F002897
:1004500004D1034800680005800EDDE70020DBE7DB
:10046000001000403D49096849084900491C3B4AC1
:1004700011601146096804229143091D374A116031
:1004800036494039496830229143027A12013023BB
:100490001A401143314A403A51601146896812149A
:1004A00091432E4A403A916011468968082291434F
:1004B0000278D20008231A401143284A403A91603A
:1004C00011468968C908C90042785207520F114382
:1004D000224A403A916011468968032212029143F0
:1004E0008278120203231B021A4011431B4A403A2E
:1004F00091601146896892149143C27812030123D6
:100500001B031A401143154A403A91601146C968CD
:10051000490949010279D206D20E11430F4A403AE5
:10052000D160114689681F22120491438279120416
:100530001F231B041A401143084A403A9160114698
:10054000896812159143C279920201239B021A40D5
:100550001143024A403A9160704700004010004049
:10056000F0B585B004460F46002C04D1384644301F
:10057000C0B2039003E038463F30C0B20390A00001
:100580003049085830490968884201D8002556E0AA
:10059000A0002C4909582D48C069814203D3002C82
:1005A00001D187254BE0A00026490958274880380B
:1005B000406F814203D3002C01D07D253FE03D46B2
:1005C00039E0A80020490E58681C800008580290A5
:1005D000A0001C490858B0422BD3A000095802982B
:1005E000814226D20298B0421FD90298801BC0B225
:1005F0000190A00013490858801B00900098C0008B
:100600000090A0000858801B410000980818009036
:1006100001990098FFF7FCFD0D4908550846005D5B
:10062000092805DD0920085502E000200849085581
:1006300004E0681CC5B203988542C2DB00BF2846AF
:1006400005B0F0BD84040020040200200404002052
:100650001600002070B50446002C06D1112252016C
:1006600023492448FFF77EFD0EE0032C06D1FF222C
:10067000F93221491F48FFF775FD05E0FF22F932E5
:100680001E491C48FFF76EFDA0001D4908580F28A1
:100690002CD3A00008581B49884227D8204600F0D8
:1006A00039F8012822D1A0001749095817480069D4
:1006B000814203D3002C01D144250CE0A000124953
:1006C00009580C488030C06F814203D3002C01D000
:1006D0003F2500E0002529462046FFF741FF06465A
:1006E0000B48005DB04201D00948065570BD0000BE
:1006F000007B0000040200200076000080780000EB
:1007000074040020D70F000084040020040300209C
:1007100012000020014688000E4A1058002807D118
:1007200088000D4A10588A000A4B985001207047E3
:100730008800084A10588A00074B9A58904207D000
:1007400088001A4610588A00024B98500120EEE7A4
:100750000020ECE78404002074040020074840785F
:10076000C009002808D006480179807A814203DD5B
:100770000348807A02490871704700003F0000205A
:10078000C40800200F4840788007C00F002818D008
:100790000D4840690D49884204D20D48407D0C49FE
:1007A00008710EE00A48007D094908710648406951
:1007B0000849884205D3034840780221884301490B
:1007C000487070473F000020A0070020A08C000068
:1007D000C4080020401901003F490978C907C90F22
:1007E000002977D03D494979052910D13C4909793B
:1007F000002908DD3A4909790F2904DC38490A79CA
:100800003849885C5AE03749891F087C56E03349EB
:100810004979042910D132494979002908DD304944
:1008200049790F2904DC2E494A792E49885C45E034
:100830002C49891F087C41E028494979032910D1B6
:1008400027498979002908DD254989790F2904DCA0
:1008500023498A792349885C30E02249891F887BB3
:100860002CE01E494979022918D11F4989790129AB
:1008700003D11C49891F887C20E01949C9790029C6
:1008800008DD1749C9790F2904DC1549CA791549CA
:10089000885C13E01349891F887B0FE01049097AAF
:1008A000002908DD0E49097A0F2904DC0C490A7A6F
:1008B0000C49885C02E00B49891F087B0949891FA4
:1008C0000979814207DD002805D00649891F087192
:1008D00001E0FFE700BF70473F000020080900204B
:1008E00092010020CA080020A007002039480078A3
:1008F000C007C00F00286BD1374880788007C00F31
:10090000002865D034480078C007C00F00283ED0CA
:10091000324840781E2816D13148807B00280BDDF4
:100920002F48807B102807DA2D48817B2D48405CBA
:100930002C49891FC8704BE02A48801F407D2949F7
:10094000891FC87044E0254840781D2840D12448BC
:10095000C07B00280BDD2248C07B102807DA204826
:10096000C17B2048405C1F49891FC87005E01D48B5
:10097000801FC0791B49891FC8701A48801FC07822
:10098000192825DD19201749891FC87020E0124851
:1009900000788007C00F00281AD01048407811282E
:1009A00016D10F48007C00280CDD0D48007C102873
:1009B00008DA0B48017C0B481030405C0949891F5C
:1009C000C87005E007481030C07B0649891FC87011
:1009D00070470000040800203F000020B4090020F8
:1009E000B2010020CA08002010B5E748407800286E
:1009F00040D1E548807800283CD1E348C078002801
:100A000038D1E1484079002834D1DF48C079002846
:100A100030D1DD48007A00282CD1DC4880790628C6
:100A200028D10020D8494872D94880788007C00F63
:100A3000002807D1D7480078C007C00F002801D18F
:100A400000F02CFBD448C078D34908710020CE496F
:100A50008861FFF7C1FE00F0EDFD00F03BFD00F006
:100A6000EBFA00F0B7FAFFF741FF01F049F9FFF7A1
:100A700075FE87E1C4484078042817D0C2488078C2
:100A8000042813D0C048C07804280FD0BE4840794D
:100A900004280BD0BC48C079042807D0BA48007A93
:100AA000042803D0B9488079022827D1B648407A73
:100AB000002807D0B448407A012803D0B248407AD1
:100AC000022806D1B4484078B349C8700846C078B7
:100AD0000871AD488069401CAB498861642809D31E
:100AE00000208861AC48C078401EAB49C8700846F9
:100AF000C07808710420A449487243E1A2484078B4
:100B0000032817D0A0488078032813D09E48C078C7
:100B100003280FD09C48407903280BD09A48C0790D
:100B2000032807D09848007A032803D09748807993
:100B3000032870D19448407A002807D09248407A20
:100B4000012803D09048407A022806D19248407884
:100B50009149C8700846C07808718B4840780328CE
:100B600007D089488078032803D08748C0780328B5
:100B700014D185488069401C834988617D21C90062
:100B8000884243D30020804988618348C078401E52
:100B90008149C8700846C078087137E07A484079C2
:100BA000032807D07848C079032803D07648007A14
:100BB000032814D174488069401C73498861FF215F
:100BC000F531884222D300206F4988617248C0788D
:100BD000401E7149C8700846C078087116E06B481D
:100BE0008079032812D168488069401C6649886171
:100BF0006A4988420AD30020634988616648C07800
:100C0000401E6549C8700846C078087103205E49D7
:100C10004872B7E0FFE75C484078022817D05A488E
:100C20008078022813D05848C07802280FD0564840
:100C3000407902280BD05448C079022807D0524886
:100C4000007A022803D051488079042815D1FFF793
:100C500099FDFFF7C1FD00F0EDFC00F03BFC00F05A
:100C6000EBF900F0B7F9FFF741FE01F049F8FFF7A3
:100C700075FD02204449487284E0434840780128C9
:100C800017D041488078012813D03F48C078012808
:100C90000FD03D48407901280BD03B48C07901284E
:100CA00007D03948007A012803D0384880790528D0
:100CB00065D13548407801280BD033488078012829
:100CC00007D03148C078012803D030488079052802
:100CD00019D12D488069401C2B4988612F498842D1
:100CE00037D30020284988612B48C0782A49897861
:100CF00088422EDA2848C078401C2749C870084628
:100D0000C078087125E020484079012807D01E48A6
:100D1000C079012803D01C48007A012819D11A484B
:100D20008069401C184988617D21C900884210D320
:100D30000020154988611848C07817498978884289
:100D400007DA1548C078401C1349C8700846C078B7
:100D50000871FFF717FDFFF73FFD00F06BFC00F097
:100D6000B9FB00F069F900F035F9FFF7BFFD00F0BD
:100D7000C7FFFFF7F3FC01200349487202E005209A
:100D80000149487210BD0000E8070020D409002086
:100D90003F00002050090020C4080020B80B0000CC
:100DA00010B585488079012805D18449C8790EF0AD
:100DB0001BF8044604E0814948780EF015F8044613
:100DC0007F4800788007C00F00286AD07D480078EF
:100DD000C007C00F002853D17B4800692330A042D0
:100DE00003DC0F2079494871BAE0774800691E306A
:100DF000A04203DC0E2075494871B1E072480069D9
:100E00001930A04203DC0C2070494871A8E06E48FC
:100E100000691430A04203DC0A206C4948719FE04D
:100E2000694800690F30A04203DC08206749487117
:100E300096E0654800690A30A04203DC0720634958
:100E400048718DE060480069401DA04203DC052028
:100E50005E49487184E05C480069A04203DC0020E0
:100E60005A4948717CE058480069401FA04203DCA1
:100E700000205649487173E00020544948716FE0E2
:100E80005348407F002808DD5148407F0F2804DC8C
:100E90004F48407F4D49487162E00A204B494871F4
:100EA0005EE047480078C007C00F002858D0464889
:100EB000016920462330814203DB0F2043494871FA
:100EC0004EE04148016920461E30814203DB0D207F
:100ED0003E49487144E03C4801692046193081424E
:100EE00003DB0B20394948713AE037480169204655
:100EF0001430814203DB09203449487130E0324824
:100F0000016920460F30814203DB07202F494871D9
:100F100026E02D48016920460A30814203DB062085
:100F20002A4948711CE028480169601D814203DBA1
:100F300004202649487113E023480069A04203DBDE
:100F40000020224948710BE01F480169601F81425F
:100F500003DB00201D49487102E000201B49487155
:100F600017480078C007C00F00280DD012488079BC
:100F7000012802D10C201549487114484179801D7F
:100F8000405C124988700FE00D4800788007C00F60
:100F9000002806D00D4841791630405C0B49887016
:100FA00002E0002009498870084880780749C87025
:100FB0000846C078087110BDA0070020B4090020C1
:100FC0003F0000200408002050090020C408002031
:100FD0009201002015480078C007C00F002823D1D7
:100FE00013480078C00900281ED011480078C007B7
:100FF000C00F002809D00F480179807A814213DDA3
:101000000C48807A0B4908710EE009480078800787
:10101000C00F002808D007480179C07D814203DD58
:101020000448C07D0349087170470000040800208F
:101030003F000020C408002015480078C007C00FFA
:10104000002824D1134800784006C00F00281ED085
:1010500010480078C007C00F002809D00E48017959
:10106000C079814213DD0C48C0790B4908710EE04C
:10107000084800788007C00F002808D0064801798A
:10108000C07D814203DD0448C07D0349087170477B
:10109000040800203F000020C408002010B5FD48CF
:1010A0008079012805D1FC49C8790DF09DFE0446E0
:1010B00004E0F94948780DF097FE0446F748006CC3
:1010C000002878D1F64840784007C00F00282CD17E
:1010D000F3480078C007C00F00280BD0F148006922
:1010E000A04218DAEE48407804218843001DEC49FC
:1010F000487010E0EA4800788007C00F00280AD046
:10110000E8480069A04206DDE548407804218843AC
:10111000001DE34948700020DF494861C8618861CB
:10112000DE488078DD49C870D1E1DD4840780007AD
:10113000C00F002871D1D848C07A0A2811D1D648EA
:1011400040694B21090188420AD30020D2494861F5
:10115000D2480079D149C8700846C078401EC8708E
:10116000BCE0CD48C07A092810D1CB484069CE49AF
:101170008842F5D30020C8494861C8480079C7496A
:10118000C8700846C078401EC870A7E0C248C07A40
:10119000062811D1C0484069C3498842E0D30020E5
:1011A000BD494861BD480079BC49C8700846C0784F
:1011B000401CC87092E049E1B748C07A052811D1B7
:1011C000B54840694B2109018842C9D30020B24982
:1011D0004861B2480079B149C8700846C078401CDF
:1011E000C8707BE0AC48C07A0B2877D1AA4948691F
:1011F0004B210901FFF70CF8AC4881420ED1A648FB
:101200004069401CA4494861A4480079A349C870BA
:101210000846C078801EC87016E073E09E49486991
:101220004B21C900FEF7F4FFA14881420CD19A4836
:101230004069401C98494861984800799749C870AE
:101240000846C078401EC87095480078C007C00F97
:1012500000281ED0904840699649884206D28E48A0
:10126000006990490969401A0A2812DB8B48007806
:1012700040084000894908708A480078C007C00FBC
:10128000002806D1864840781021884310308449D0
:101290004870834800788007C00F00281ED07E4821
:1012A00040698549884206D27E4800697A490969C1
:1012B000401A0A2812DB7948007840084000774934
:1012C000087078480078C007C00F002806D174481D
:1012D0004078102188431030714948706E48806909
:1012E000754988420DD26C48C07A092809DB002074
:1012F0006949C8616A4840780821884308306849CC
:1013000048708AE06449C869E121C900FEF780FF9E
:101310006A4881420AD100205F49C8615F4800796C
:101320005E49C8700846C078C01EC8705C48007826
:10133000C007C00F00283DD05648807901281CD135
:101340005549C8790DF050FD564909691431884254
:1013500052DB52480078400840005049087051481C
:101360000078C007C00F002846D14D4840781021B2
:10137000884310304A4948703EE0474948780DF0AC
:1013800033FD484909691431884235DB4348007808
:10139000400840004149087042480078C007C00F2B
:1013A000002829D13E4840781021884310303C491C
:1013B000487021E03A4800788007C00F00281BD011
:1013C000354948780DF010FD3649096914398842CD
:1013D00012DC32480078400840003049087031483B
:1013E0000078C007C00F002806D12D484078102192
:1013F000884310302A4948702748C07A01280CDBFE
:101400002548C07A072808DC254840780821884309
:10141000234948702848204988611F48C07A01281C
:1014200055DB1D48C07A042851DC1D484078042152
:1014300088431B494870084640780821884318496A
:101440004870164880781549C87040E01448007804
:10145000C007C00F00280FD00E488079012804D1A2
:101460000E48807C0D4988702DE00C484179801D24
:10147000405C0A49887026E0094800788007C00F60
:1014800000281DD0054841791630405C034988701A
:1014900019E00000A0070020B4090020C4080020C3
:1014A0003F00002050090020B80B0000AF040000EE
:1014B00057020000282300005046000007070000E4
:1014C000002003498870024880780149C87010BD27
:1014D000C4080020514909788907C90F002976D02E
:1014E0004E4949784906C90F002911D14C49C968AC
:1014F000FF22C33291420ADD4A49C968002906DB4E
:1015000046494978402291434031444A517083E032
:101510004549497905290FD14449497A002908DD0F
:101520004249497A0F2904DC40494A7A4049885C9B
:1015300051E03F49887A4EE03B49497904290FD16F
:101540003A49497A002908DD3849497A0F2904DCEB
:1015500036494A7A3649885C3DE03549887A3AE02E
:1015600031494979032910D13049897A002908DDA8
:101570002E49897A0F2904DC2C498A7A2C49885C07
:1015800029E02B491639887F25E027494979022926
:1015900010D12649C97A002908DD2449C97A0F29C2
:1015A00004DC2249CA7A2249885C14E020491639B1
:1015B000887F10E01D49097B002909DD1B49097B53
:1015C0000F2905DC19490A7B1949885C03E01DE0F5
:1015D00017491639087F164916390979814204DD01
:1015E000002802D01249163908710D49C968FF2236
:1015F000AF32914210DA0B49C9681E290CDD074948
:10160000497840229143054A517005E003494978E1
:1016100040229143014A5170704700003F00002072
:10162000640900208C090020080900209201002094
:10163000DA08002000B5FE4A1278D207D20F002A3D
:1016400079D1FC4A1278D207D20F002A74D0FA4A14
:101650001279022A0AD1F94A507D102802DAF84A92
:10166000115CB1E0F64A921F117AADE0F24A1279AC
:10167000032A0AD1F14A107D102802DAF04A115CDF
:10168000A2E0EF4A921F117A9EE0EB4A1279042AF7
:101690000AD1EA4AD07C102802DAE94A115C93E0C8
:1016A000E74A921F117B8FE0E34A1279052A0AD19B
:1016B000E24A907C102802DAE14A115C84E0E04AB8
:1016C000921F917B80E0DC4A1279062A0AD1DB4A1C
:1016D000507C102802DADA4A115C75E0D84A921F71
:1016E000117C71E0D44A1279072A0AD1D34A107CBE
:1016F000102802DAD24A115C66E0D14A921F917B2F
:1017000062E0CD4A1279082A0AD1CC4AD07B10284F
:1017100002DACB4A115C57E0C94A921F117B53E0B1
:10172000C54A1279092A0CD1C44A907B102804DAE0
:10173000C34A115C48E0A1E163E0C14A921FD17A3B
:1017400042E0BD4A12790A2A0AD1BC4A507B1028CD
:1017500002DABB4A115C37E0B94A921F917A33E052
:10176000B54A12790B2A0AD1B44A107B102802DA42
:10177000B34A115C28E0B24A921F517A24E0AE4A83
:1017800012790C2A0AD1AD4AD07A102802DAAC4A72
:10179000115C19E0AA4A921F117A15E0A64A127943
:1017A0000D2A0AD1A54A907A102802DAA44A115CBF
:1017B0000AE0A34A921F117A06E09F4A12790E2A84
:1017C00002D19F4A921F91799A4A92789207D20F3A
:1017D000002A15D19B4AD268AA2A11DA984A921F88
:1017E00012791E2A03DA1E22954B9B1F1A71944A06
:1017F000921FD2781E2AF0DA1E22914B9B1FDA70BC
:1018000007E18C4A12789207D20F002AF8D08A4A50
:1018100052790F2A0BD1894A907D102803DA884A21
:101820001032115CE3E0864A1032917ADFE0824A9E
:1018300052790E2A0BD1814AD07D102803DA804AD2
:101840001032115CD3E07E4A1032917ACFE07A4AAE
:1018500052790D2A0BD1794A107E102803DA784A82
:101860001032115CC3E0764A1032917ABFE0724ABE
:1018700052790C2A0BD1714A507E102803DA704A33
:101880001032115CB3E06E4A1032917AAFE06A4ACE
:1018900052790B2A0BD1694A907E102803DA684AE4
:1018A0001032115CA3E0664A1032917A9FE0624ADE
:1018B00052790A2A0BD1614AD07E102803DA604A95
:1018C0001032115C93E05E4A1032917A8FE05A4AEE
:1018D0005279092A0BD1594A107F102803DA584A45
:1018E0001032115C83E0564A1032917A7FE0524AFE
:1018F0005279082A0BD1514A507F102803DA504AF6
:101900001032115C73E04E4A921FD17F6FE04A4A59
:101910005279072A0BD1494A907F102803DA484AA6
:101920001032115C63E0464A921F917F5FE0424AA9
:101930005279062A0BD1414AD07F102803DA404A57
:101940001032115C53E03E4A921F917F4FE03A4AB9
:101950005279052A0CD1394A20321078102803DA3E
:10196000374A1032115C42E0354A921F917F3EE0C7
:10197000314A5279042A0CD1304A2032507810284A
:1019800003DA2F4A1032115C31E02D4A921F517F49
:101990002DE0294A5279032A0CD1284A2032907826
:1019A000102803DA264A1032115C20E0244A921FE4
:1019B000117F1CE0204A5279022A0CD11F4A2032A2
:1019C000D078102803DA1E4A1032115C0FE01C4A4E
:1019D000921FD17E0BE0194A2032D078102803DA0A
:1019E000174A1032115C02E0154A921F917D124A8B
:1019F0005279012A03D0104A5279102A09D1104A8B
:101A0000921F1278520852000D4B9B1F1A70002231
:101A10009A62084A1278D207D20F002A03D0064AE7
:101A20001279002A16D1034A12789207D20F0BE0DE
:101A3000040800203F000020D4090020720100208B
:101A4000CA0800208C090020002A3BD01E4A527987
:101A5000002A37D01D4A12798A4210DD00290ED0A3
:101A60001A4A11711A4A127880239A438032184B0D
:101A70001A701A465278520852005A7022E0002911
:101A800015D1124A127852085200104B1A700022D7
:101A90009A620F4A127880239A4380320C4B1A7054
:101AA0001A46527852085200521C5A700AE0084AEC
:101AB000127880239A43064B1A701A4652785208BD
:101AC00052005A7000BD0000D4090020C408002054
:101AD000A00700200020854A1278D207D20F002AE2
:101AE00074D0834A1279022A02D1824A507D4BE097
:101AF0007F4A1279032A02D17E4A107D44E07C4A53
:101B00001279042A02D17B4AD07C3DE0784A1279CE
:101B1000052A02D1774A907C36E0754A1279062A66
:101B200002D1744A507C2FE0714A1279072A02D1FF
:101B3000704A107C28E06E4A1279082A02D16D4A58
:101B4000D07B21E06A4A1279092A02D1694A907B46
:101B50001AE0674A12790A2A02D1664A507B13E0DA
:101B6000634A12790B2A02D1624A107B0CE0604A68
:101B700012790C2A02D15F4AD07A05E05C4A1279C8
:101B80000D2A01D15B4A907A002814DD102812DA60
:101B9000594A115C002906DD584A52785208520011
:101BA000564B5A70A1E0554A527852085200521CC6
:101BB000524B5A7099E00028F4D1504A527852089A
:101BC0005200521C4D4B5A708FE0FFE7474A127883
:101BD0009207D20F002AE5D0454A52790F2A02D146
:101BE000444A907D60E0424A52790E2A02D1414A2D
:101BF000907D59E03E4A52790D2A02D13D4AD07D6E
:101C000052E03B4A52790C2A02D13A4A107E4BE00C
:101C1000374A52790B2A02D1364A507E44E0344A80
:101C200052790A2A02D1334A907E3DE0304A5279F5
:101C3000092A02D12F4AD07E36E02D4A5279082A4D
:101C400002D12C4A107F2FE0294A5279072A02D16B
:101C5000284A507F28E0264A5279062A02D1254A8E
:101C6000907F21E0224A5279052A02D1214AD07F71
:101C70001AE01F4A5279042A03D11E4A20321078F2
:101C800012E01B4A5279032A03D11A4A20325078B3
:101C90000AE0174A5279022A03D1164A2032907874
:101CA00002E0144A2032D078002815DD102813DA1B
:101CB000114A1032115C002906DD104A5278520890
:101CC00052000E4B5A7010E00C4A527852085200E3
:101CD000521C0A4B5A7008E0002806D1074A527875
:101CE00052085200521C054B5A7070473F000020AA
:101CF000D409002072010020CA080020A00700209B
:101D00000D4800780007C00F002806D00B48007867
:101D100040084000094908700CE007480078400777
:101D2000C00F002806D005480079282802DD2820A9
:101D30000249087170470000DC090020C408002037
:101D400010B50DF0A1F80DF08FF8F948006B0028E0
:101D500004D0F748006B401EF5490863F548007B46
:101D6000032803DBF348407B042803DAF248407978
:101D7000012808D1F1480069002804D0EF48006923
:101D8000401EEE490861EA4800788007C00FEC4920
:101D900009788907C90F88420BD1EA480078C00743
:101DA000C00F00280ED1E74800788007C00F002838
:101DB00008D1E3484068002804D0E1484068401E4C
:101DC000DF494860E0484068002804D0DE484068A9
:101DD000401EDD494860D848007AFF2804DAD6481A
:101DE000007A401CD4490872D348407902287DD13A
:101DF000D6484069D649884204D2D4484069401C3C
:101E0000D2494861D1488069D149884204D2CF483B
:101E10008069401CCD498861CC48C069CC49884262
:101E200004D2CA48C069401CC849C861C948C068D2
:101E3000C749884204D2C748C068401CC549C86029
:101E4000BE48C06A002804D0BC48C06A401EBB49D6
:101E5000C862B7482030007D002807DDB448203034
:101E6000007D401EC1B2B24820300175B5480078EF
:101E70008007C00F002876D0AD480078C007C00F9B
:101E800000280CD0AA4800788007C00F002806D090
:101E9000B1480078082188430830AF490870AE483F
:101EA0000078C007C00F002840D1AB480078000779
:101EB000C00F002813D0A8488068A549884204D2E2
:101EC000A5488068401CA4498860A348C068A04910
:101ED000884204D2A048C068401C9F49C8609E4800
:101EE00000784007C00F00281CD000E0C9E09048EF
:101EF0000078C007C00F002810D08D4800788007F8
:101F0000C00F00280AD094480069914988422AD21B
:101F100091480069401C9049086124E000208E49E6
:101F2000086120E000208C4908611CE08A48406973
:101F30008749884204D288484069401C86494861E4
:101F4000854880698249884204D283488069401C60
:101F5000814988618048006A002804D07E48006A70
:101F6000401E7D490862724800788007C00F002833
:101F70002AD06F48806A002804D06D48806A401ECD
:101F80006B49886275484068002804D073484068EF
:101F9000401E724948606648006C002814D06448AE
:101FA000006C401E624908640846006C00280BD192
:101FB0006448407804218843624948700846407864
:101FC000082188435F4948705C4800798007C00F4A
:101FD000002827D05B484078C006C00F002821D1D8
:101FE0005F480078C007C00F00281BD15D4800780B
:101FF000C007C00F002815D15B480078C007C00F8C
:1020000000280FD159480078C007C00F002809D117
:1020100057480078C007C00F002803D10021474867
:10202000416109E0454840694949884204D2434832
:102030004069401C41494861404820300078800791
:10204000C00F00280CD03A482030007B002807DD64
:1020500037482030007B401EC1B235482030017324
:10206000384840788007C00F002830D03248406997
:10207000404988422BD230484069401C2E49486173
:1020800025E02D484079012813D12C48C06A00284A
:1020900004D02A48C06A401E2849C8622648C06841
:1020A0002B49884213D22448C068401C2249C8608A
:1020B0000DE021484079032809D11F4800692449CF
:1020C000884204D21C480069401C1B49086118481A
:1020D000407800280DD11648C06B401C002804D061
:1020E0001348C06B401C1249C86300201049886324
:1020F0000CE00F48806B401C002804D00C48806B1B
:10210000401C0B49886300200949C86314480078C3
:10211000C007C00F00282FD0114840680C498842E2
:102120002DD20F484068401C0D49486027E0000050
:10213000C408002094040020A00700200809002003
:102140004C0000203F00002084000020B409002043
:10215000FFFF0000A4040020040800205400002019
:102160005009002064090020780900208C09002013
:10217000A009002040190100002029494860294891
:102180000078C007C00F00280AD0264840682649BA
:10219000884208D223484068401C2249486002E037
:1021A00000202049486021480078C007C00F00285F
:1021B0000AD01E4840681C49884208D21B48406823
:1021C000401C1A49486002E000201849486018483D
:1021D0000078C007C00F00280AD01548406812498F
:1021E000884208D212484068401C1149486002E009
:1021F00000200F4948600F480078C007C00F002832
:102200000AD00C4840680849884208D2094840680A
:10221000401C0849486002E000200649486010BDA3
:102220005009002064090020FFFF00007809002009
:102230008C090020A00900207047000010B5F84864
:102240008079012805D1F749C8790CF0CDFD044605
:1022500004E0F44948780CF0C7FD0446F2480078E1
:102260008007C00F002828D0F0480078C007C00FB2
:10227000002822D1EE48C068FF215F31884206DB8A
:10228000EC48007904218843EA49087115E0E948DF
:10229000007904218843001DE6490871E448C068BC
:1022A000FF212D31884208DAE248007940084000D9
:1022B000E04908710021DF480161D94840790328CD
:1022C00003D10421DB484171C9E2D74800784006B8
:1022D000C00F002807D0D748007940084000401CB4
:1022E000D4490871BBE2D1480078C007C00F00286C
:1022F00006D0D048007940084000CE490871AEE2CF
:10230000CC4800784007C00F002809D1C448807924
:10231000012805D0C74800794007C00F002864D0C5
:102320000221C4484171BE4880790128CCD1C048FF
:102330000078C007C00F00280BD1BF480078C00745
:10234000C00F002805D1BD480078C007C00F002885
:1023500007D0B848007940084000401CB5490871D2
:102360007DE2B1484078C006C00F0028ACD0B1482B
:102370004069B349884207D2AE480079400840001E
:10238000401CAC4908716AE2AA484069AD498842DC
:1023900006D2A848007940084000A64908715EE2CC
:1023A000A4484069A849884215D2A248007940084B
:1023B0004000401C9F4908710846C078002891D110
:1023C00008464078C87098484078202188432030DB
:1023D0009549487043E29748007940084000954984
:1023E000087197499348416139E28F480078C009E4
:1023F00000280ED095484178807A401C814208DC44
:1024000001218C48417100798843401C8949087139
:1024100025E2854840788007C00F002810D00521AC
:10242000844841718A4800780007C00F002897D17E
:102430008048007940084000401C7E4908710EE247
:1024400079480078C007C00F002819D07848007874
:10245000C007C00F00280BD177480078C007C00F15
:10246000002805D175480078C007C00F002807D0A4
:102470007048007940084000401C6E490871EEE148
:10248000694800788007C00F00284BD07148007859
:10249000C007C00F002817D165480078C007C00FDB
:1024A000002811D164480078C007C00F00280BD164
:1024B00069480078C007C00F002805D15F48007840
:1024C000C007C00F00282DD05A4840695C49884297
:1024D00015D3584840696149884209D202215548BC
:1024E0004171007940084000401C5249087110E0D9
:1024F00050480079400840004E49087109E04D48B5
:102500000069002805D14B4800794008400049493E
:102510000871484840694B49884290D34910454862
:1025200041619CE140484078C006C00F002876D049
:102530003D480078C007C00F00283FD002213D4829
:10254000417140693E49884207D23A4800794008C3
:102550004000401C3749087181E1364840693949DB
:10256000884206D23348007940084000314908715A
:1025700075E1304840693449884215D22D480079C8
:1025800040084000401C2B4908710846C0780028CC
:10259000C7D108464078C870234840782021884336
:1025A0002030214948705AE1224800794008400013
:1025B0002049087122491F48416150E11A480078BA
:1025C0008007C00F0028ACD01A4840691C498842D7
:1025D00015D302211748417140692049884207D22A
:1025E0001448007940084000401C124908714FE02F
:1025F00010480079400840000E49087148E013482F
:1026000000788007C00F00282AD00948C068FF2141
:102610002D3188423CDDC8210648016138E040E0A8
:10262000A0070020B40900203F000020040800207B
:10263000640900200809002078090020A009002072
:1026400070170000E02E000038310000C4080020A0
:10265000DC090020500900208C0900209C18000093
:1026600089480069002805D1874800794008400062
:10267000854908718548C068FF212D31884207DCF3
:102680000021814801610079400840007E490871BD
:102690007D4840697E49884285D349107A48416126
:1026A000DDE079484078042871D17A480078C00785
:1026B000C00F00282FD07448807873494978884229
:1026C00003D17148407903280DDA7348C168204668
:1026D0001E30814203DB04216B484171A8E00321D5
:1026E00069484171A4E068484079042809D16A48E2
:1026F000C16820460A30814202DC032162484171F0
:1027000096E06548C16820461E30814202DB042104
:102710005D4841718CE05F4800788007C00F002859
:102720004AD05948807858494978884209D1564852
:102730004079032805DB54480078C006800F022842
:1027400026DA51480078182188434F490978C9068C
:10275000890F491CC9001822114008434A490870D2
:10276000C006800F022863DB0846007818218843E2
:102770001030454908704848C068FA2803DB042136
:102780004148417154E003213F48417150E017E056
:102790003D484079042807D13F48C068E62847DA19
:1027A00003213948417143E03B48C068FA283FDDC6
:1027B0000421354841713BE003213348417137E042
:1027C00031484078002820D13448C07E4007400F6F
:1027D00003000DF04FF80504080C10141800042035
:1027E0002949487010E00320274948700CE0022076
:1027F0002549487008E001202349487004E003207F
:102800002149487000E000BF12E01F4840780128CD
:1028100003D104211C4841710AE01B48407802287A
:1028200003D103211848417102E002211648417189
:102830001B484079022812D11A480078C007C00FFF
:1028400000280CD1184800780007C00F002806D1D6
:102850000D48007940084000401C0B4908710A48A7
:10286000807809494978884209D007484079032887
:1028700005DA0548007818218843034908700248A2
:1028800040780149887010BD0809002064090020C3
:10289000E02E00003F0000205009002078080020B2
:1028A000A007002004080020DC090020644800780C
:1028B000C007C00F002803D0042162484170BDE06A
:1028C000614800784006C00F002805D15F480078B5
:1028D0004007C00F002803D001215A484170ADE0E5
:1028E000594800788007C00F00282BD05848C0688E
:1028F000322813DB57484078282803DC022151484E
:1029000041709BE0534840783C2803DA03214D484E
:10291000417093E003214B4841708FE04D4840786F
:10292000282803DC03214748417087E04948407864
:102930003C2803DA0321434841707FE004214148E9
:1029400041707BE040480078C007C00F002875D078
:102950003D484078C009002807D03A48407801280F
:102960006CD002213748417068E0374840788007D2
:10297000C00F002803D00521324841705EE0344882
:10298000C068FF21AF31884213DB324840782828E5
:1029900003DC04212B48417050E02E4840783C284D
:1029A00003DA04212748417048E00421254841709A
:1029B00044E02748C068FF215F31884213DB254887
:1029C0004078282803DC03211E48417036E0214866
:1029D00040783C2803DA03211A4841702EE0042194
:1029E000184841702AE01A48C068C82813DB194803
:1029F0004078282803DC0221124841701EE0154867
:102A000040783C2803DA03210E48417016E0032188
:102A10000C48417012E00F484078282803DC02215E
:102A2000084841700AE00B4840783C2803DA02214C
:102A30000448417002E002210248417070470000E2
:102A400004080020280900203F000020DC090020A5
:102A50008C090020C408002010B507F0CDF904F05F
:102A600003FF07F0D3FC07F077FC07F0ADF9174838
:102A7000407903000CF0FEFE0504070A0D10130058
:102A800000F02EFA0CE000F009FB09E000F084FBF6
:102A900006E000F033F903E001F086FB00E000BF40
:102AA00000BF04F0AFFA07F0ABFC04F0A1FD07F0A3
:102AB0004BF907F017FD07F0E9F805F093FA07F076
:102AC00001F904F092FA0AF0DDFD10BDA007002024
:102AD0000EB54F48007800F0ABF802904C480078F3
:102AE000FDF7B8FD4A480078002807D14948484911
:102AF0000978405C1E3840B2019012E044480078EA
:102B0000032807D1434842490978405C143840B251
:102B1000019006E03F483E490978405C143840B2D5
:102B200001903D483A490978405C00903848007867
:102B3000002811D16846007A384908706846007A42
:102B400000285AD16846042141563448017268462B
:102B500000783249487250E02D480078012811D1A0
:102B60006846007A2E4908706846007A002844D1E9
:102B70006846042141562A4801726846007828496F
:102B800048723AE022480078032821D16846007A4A
:102B9000244908706846007A002808D16846042154
:102BA000415620480172684600781E4948721D4807
:102BB0000078C007C00F1C4908706846007A0028DA
:102BC0001BD11848007A08721648407A487214E0FF
:102BD0000F480078022810D16846007A134908701F
:102BE0006846007A002808D16846042141560F48FB
:102BF0000172684600780D49487205480078401C0B
:102C0000C0B203490870042801DB002008700EBD23
:102C10001A0000201200002016000020A009002049
:102C200078090020500900208C0900206409002048
:102C300001462C48405C002832D188002A4A1058AE
:102C40002A4A904210D90020294A50542948405C11
:102C5000401CC0B2274A5054012840DB0020505489
:102C60000120204A50543AE088001F4A10580F288B
:102C700010D200201F4A50541D48405C401CC0B276
:102C80001B4A505401282ADB002050540120154AC9
:102C9000505424E00020164A5054164A50541EE066
:102CA0008800114A1058232816D3880010580F4A5C
:102CB000143A904210D81048405C401CC0B20E4AF2
:102CC000505405280BDB00205054094A5054094A3F
:102CD0005054044A505402E00020074A505401481E
:102CE000405C70471B00002074040020D70F0000D8
:102CF0001F000020230000202700002010B56E4890
:102D0000007940084000401C6B490871084620309B
:102D1000007840084000401C2031087067488079E6
:102D200000280DD16648007840084000401C6449E6
:102D300008700846007802218843614908700CE059
:102D40005F480078400840005D49087008460078F8
:102D500002218843801C5A49087059480078C007EE
:102D6000C00F002826D03C205649C870564800782D
:102D70004008400054490870524800788007C00F4E
:102D8000002807D05148007840084000401C4F49B7
:102D9000087005E04D480078400840004B49087035
:102DA00000204A4948604A480078400840004849A5
:102DB00008701CE0424800788007C00F002816D039
:102DC00032204049C8704048007840084000401C0C
:102DD0003D4908703D480078400840003B49087074
:102DE0003B48007840084000401C3949087034488E
:102DF00000784007C00F32490978C907C90F8842D7
:102E000009D12F4800780007C00F2D49097889079C
:102E1000C90F884206D02B48007840084000294955
:102E2000087006E02748007840084000401C25490B
:102E300008700020234988622648007804218843CE
:102E4000001D244908700846007840084000401CD6
:102E500008702148007804218843001D1E4908702D
:102E60000846007840084000401C0870144800786C
:102E7000042188431249097889000422114008433B
:102E80000F49087008460078082188430C490978E2
:102E90008907C90FC9000822114008430849087072
:102EA000064800690D49884204D30020034908619F
:102EB00004F036FF10BD000008090020A007002024
:102EC0003F000020C40800204C00002054000020D7
:102ED000810000205C000020F00900205046000026
:102EE00010B51F2007F034FB6748007A03287DDB0C
:102EF00009F060FD09F04AFE6448807A64498871EF
:102F00006248C17A6248C1716048017B60480172C1
:102F10005E48417B5E4841725C48817B5C488172BF
:102F20005A48C17B5A48C1725848017C58480173BD
:102F30005648417C564841735448817C54488173BB
:102F40005248C17C5248C1735048017D50480174B9
:102F50004E48417D4E4841744C48817D4C488174B7
:102F60004A48C17D4A48C1744848017E48480175B5
:102F70004648417E464841754448807E44498875AC
:102F80004248C17E4248C1754048017F40480176B1
:102F90003E48417F3E4841763C48817F3C488176AF
:102FA0003A48C17F3A48C1763848203001783848DD
:102FB0000177364820304178354841773348203012
:102FC00081783348817731482030C1783048C177E3
:102FD0002E48203001792E48163081722B4820303F
:102FE00041792B481630C172284800E04BE0203070
:102FF000817927481630017324482030C17924484C
:103000001630417321482030017A214816308173EF
:103010001E482030417A1E481630C1731A48407944
:1030200001280BD01B4800784007C00F002805D1AD
:10303000194800784006C00F002819D0FF209130B1
:103040001349086301201049487113490978402247
:103050009143114A11704906C90F89000422114099
:1030600008460C490978914301430A4A117006E069
:10307000E120C000064908630220034948710BF0B3
:10308000EBFE03F0C7FD10BDA00700205201002099
:10309000C4080020440900203F00002000203549DA
:1030A000C872354800784008400033490870084627
:1030B00000780221884330490870084600781021C2
:1030C00088432D49087008460078202188432A4902
:1030D00008702A48007840084000284908700846CF
:1030E000C06B1E280CD326480079400840002449B4
:1030F00008710846203000784008400020310870F0
:1031000020480078400840001E4908701E4800789A
:10311000400840001C4908701C48007840084000E6
:103120001A4908701A480078400840001849087089
:1031300000201249886210480078402188430E49D7
:103140000870002013498861C8610D480079800724
:10315000C00F002802D100210948C1600848203072
:1031600000788007C00F002802D100210448816246
:1031700070470000B40900203F000020C408002070
:1031800008090020540000204C000020810000208D
:103190005C000020A007002010B5FA480078400825
:1031A0004000F8490870F848007940084000401C89
:1031B000F549087108462030007840084000401C5E
:1031C00020310870F148807905287DD243007B4486
:1031D0009B885B009F4404006801080342039F052D
:1031E0000024EB480078C007C00F00280FD1E94841
:1031F0000078C007C00F002803D1E74948780BF0DA
:10320000F3FDE348407804218843E1494870E048F1
:10321000007840084000401CDD49087008460078EE
:1032200002218843DA490870084600781021884353
:10323000D74908700846007820218843D44908708F
:10324000084680788007C00F00280FD0D248407809
:103250001D2803D0D04840781E2807D1CF480078D9
:1032600040084000401CCD490870DCE0C9480078A7
:10327000C007C00F002817D1C9480078C007C00F89
:10328000002811D1C7480078C007C00F00280BD113
:10329000C5480078C007C00F002805D1C348007892
:1032A000C007C00F002870D00020BC498862BC480D
:1032B0000078C007C00F002805D1BA480078C007C1
:1032C000C00F002808D000E0EDE3B44800784008C3
:1032D0004000B2490870A6E0B4480078C007C00FAB
:1032E00000281CD0B1484068B149884207D2AB4899
:1032F000007840084000401CA849087093E0AB48A3
:103300004068AC49884206D2A44800784008400092
:10331000A249087087E00020A449486083E09D48E6
:103320000078C007C00F002805D19F480078C0076B
:10333000C00F002877D097480078C007C00F00283A
:1033400028D0944840689C49884212D2934800781B
:1033500040084000401C9149087008204871084608
:103360004179801D405C8D49887008468078C8701E
:1033700059E0884840689149884207D287480078D8
:1033800040084000854908704DE026E00020814952
:10339000486048E084480078C007C00F002842D049
:1033A000814840688449884207D27C4800784008B8
:1033B0004000401C7949087035E07B4840687F49EF
:1033C000884206D27548007840084000734908706A
:1033D00029E000207449486025E06C48007A0A28FA
:1033E00021DB6B484078C006C00F00281BD16A481B
:1033F000C07A01280BDB6848C07A072807DA6748DB
:10340000007840084000401C644908700BE06348A5
:1034100000788007C00F002805D160480078400878
:1034200040005E4908705D480078C007C00F002862
:1034300011D158480078C007C00F00280BD15A4856
:103440000078C007C00F002805D158480078C00791
:10345000C00F002807D04C48007940084000401CAD
:103460004949087105E0484800794008400046494C
:1034700008714D480078C007C00F002805D14748A3
:1034800000788007C00F002806D14D48007840081A
:1034900040004B49087006E0494800784008400069
:1034A000401C47490870FDE3002439480078400873
:1034B0004000401C364908700846007802218843C5
:1034C0003349087008460078102188433049087055
:1034D00008460078202188432D4908702D4800783F
:1034E000C007C00F002817D12D480078C007C00FB3
:1034F000002811D12B480078C007C00F00280BD13D
:1035000029480078C007C00F002805D12748007857
:10351000C007C00F00287DD00020204988622048C5
:103520000078C007C00F002805D11E480078C007EA
:10353000C00F002806D019480078400840001749FD
:10354000087010E119480078C007C00F00283DD06E
:10355000164840681649884207D21048007840084B
:103560004000401C0D490870FDE0104840681149BA
:10357000884227D20948007840084000074908706F
:10358000F1E000008100002008090020A0070020D1
:103590003F00002050090020B4090020C40800208A
:1035A00064090020780900208C090020A00900206F
:1035B0007017000028230000504600000852000049
:1035C000540000200020FE494860CCE0FD4800780F
:1035D000C007C00F002805D1FB480078C007C00F06
:1035E0000028AED0F7480078C007C00F002829D0C7
:1035F000F4484068F549884214D2F54800784008FC
:103600004000401CF2490870082048710846417982
:10361000801D00E039E0405CED4988700846807804
:10362000C870A0E0E7484068EA49884206D2E84806
:10363000007840084000E649087094E00020E14925
:10364000486090E0E0480078C007C00F00280BD029
:10365000DD484068DD49884207D2DD4800784008EF
:103660004000401CDA4908707DE0D7484068D949DD
:10367000884206D2D648007840084000D4490870F5
:1036800071E00020D04948606DE007200BF0ACFBF2
:103690001430CC49C968884213DCCD480078400812
:1036A0004000401CCA490870CB484078102188432C
:1036B000C9494870C948007880218843C7490870C3
:1036C0002DE007200BF090FBBE49C968884214DB4F
:1036D000BF48007840084000BD490870BE484078A7
:1036E000102188431030BC494870BC4800788021C4
:1036F00088438030B949087011E0B8480078C009A3
:1037000000280CD0B248007840084000B04908704A
:10371000B1484078102188431030AF494870B04814
:1037200040788007C00F00281DD1AD4840780221A5
:103730008843801CAA494870A2480A214156092999
:1037400003DA0720A749C8710DE09E480A214156B7
:10375000202903DD1E20A349C87104E09948807A1E
:10376000801EA049C8719A480078C007C00F002881
:1037700011D194480078C007C00F00280BD192489F
:103780000078C007C00F002805D18D480078C00719
:10379000C00F002807D09448007940084000401C22
:1037A0009149087105E090480079400840008E4931
:1037B000087185480078C007C00F002805D18448EB
:1037C00000788007C00F002806D18848007840089C
:1037D00040008649087006E08448007840084000B0
:1037E000401C8249087084E300247B48007840082C
:1037F00040007949087008460078022188437649DC
:10380000087008460078102188431030724908700B
:1038100008460078202188436F49087008464078A0
:10382000102188436C49487069480078400840007E
:1038300067490870002088626B4820300078400893
:10384000400069492031087000216748C16267481B
:10385000007840084000654908704AE359480078FC
:10386000C007C00F002817D161480078C007C00FFB
:10387000002811D15F480078C007C00F00280BD185
:1038800051480078C007C00F002805D14C48007887
:10389000C007C00F002827D04F4800782021884358
:1038A0004D490870084600784008400008700846F6
:1038B00000780221884348490870084600781021A2
:1038C000884310304449087041480078400840005F
:1038D0003F49087045480078400840004349087057
:1038E00000203B49886215E23B4800788006C00F03
:1038F000002852D138480078400840003649087006
:103900000846007802218843334908700846007849
:1039100010218843304908702A48C068FA2806DB1D
:103920000846007840084000401C08702DE02548FB
:10393000C068C8280FDB2848007810218843103061
:103940002549087022480078400840002049087046
:103950000020886219E01B48C068BE280EDB1E48A4
:103960000078102188431C490870194800784008E5
:103970004000174908700020886206E01648007869
:1039800002218843801C14490870134800782021C4
:103990008843203010490870BCE10F480078C00708
:1039A000C00F00287ED00A48007840084000401C24
:1039B0000749087010480078400840000E491DE093
:1039C000A0090020500900208C090020504600006A
:1039D000C4080020085200003F000020E807002033
:1039E000A0070020B409002008090020540000208E
:1039F00064090020780900204C0000200870FA4873
:103A00000078C007C00F002807D0F84800794008A8
:103A10004000401CF549087105E0F4480079400871
:103A20004000F2490871F2480078C007C00F002832
:103A300005D1ED4800788007C00F002806D1ED4879
:103A4000007840084000EB49087006E0E94800783B
:103A500040084000401CE7490870E748C16820461C
:103A6000E630814226DCE548407A401CC1B2E3489A
:103A70004172642921DB00214172E148007840084D
:103A80004000DF4908700846007810218843103054
:103A9000DB490870D848C1682046C83081420CDC38
:103AA000D74801E012E023E2007820218843D4497E
:103AB000087002E00021D14841720021CF4809304E
:103AC00041708170C1700171417123E1CC4800786F
:103AD0008007C00F002877D0C34800784008400016
:103AE000401CC1490870C748007840084000401C8D
:103AF000C4490870BF48007840084000BD490870BC
:103B0000B9480078C007C00F002820D0B648007818
:103B10008007C00F002805D1BB48C068FF215F3176
:103B2000884205DAB04800788007C00F002807D027
:103B3000AE48007940084000401CAC49087110E0D4
:103B4000AA48007940084000A849087109E0A74840
:103B50000069002805D1A548007940084000A34924
:103B60000871A548C1682046BE3081421EDBA348CB
:103B700009304078401CC1B2A04809304170642926
:103B800018DB002141709E480078400840009C49A5
:103B90000870084600780221884399490870084651
:103BA0000078102188439649087003E0002193486B
:103BB0000930417000219148417209308170C17013
:103BC00001714171A6E0FFE7874800784008400096
:103BD000854908708B480078400840008949087082
:103BE0008448007840084000824908708448007882
:103BF000C006C00F002842D07F48C1682046FA3076
:103C000081421CDB7D4809308078401CC1B27B4872
:103C10000930817064290DDB0021817078480078BB
:103C20001021884376490870084600784008400013
:103C3000401C0870002171480930C17019E06E48BD
:103C4000C068BE2815DC6D480930C078401CC1B280
:103C50006A480930C170642907DB0021C1706848D7
:103C600000781021884366490870002163480930B4
:103C700081700021614809300171417145E05E4861
:103C8000C068C82819DB5D4809300079401CC1B202
:103C90005A480930017164290ADB00210171584832
:103CA000007800E025E11021884310305449087065
:103CB000002152480930417122E04F48C168204636
:103CC000B430814217DC4D4809304079401CC1B204
:103CD0004A4809304171642908DB00214171484894
:103CE000007802218843801C454908700021434820
:103CF0000930017104E0002140480930017141712F
:103D000000213E4809308170C17000213B4841725A
:103D100009304170EDE00024394800788007C00F79
:103D200000280FD134480078C007C00F002803D105
:103D3000364948780BF058F83148407804218843D8
:103D40002F4948702E480078400840002C490870E0
:103D50000846007802218843801C294908700846DB
:103D600000781021884326490870084600782021F1
:103D7000884323490870084680788007C00F0028D0
:103D80000BD022484078112807D117480078400806
:103D90004000401C1449087064E017480078C007D0
:103DA000C00F002817D118480078C007C00F00289E
:103DB00011D117480078C007C00F00280BD10C485C
:103DC0000078C007C00F002805D112480078C0074E
:103DD000C00F002820D00448007840084000024965
:103DE0000870002088623DE0C40800200809002017
:103DF0008C0900205400002050090020C00700203A
:103E00003F0000204C00002064090020B40900207D
:103E100078090020A0090020D348007A0A2821DB75
:103E2000D2484078C006C00F00281BD1D048C07AC5
:103E300001280BDBCE48C07A072807DACD48007886
:103E400040084000401CCB4908700BE0C94800788E
:103E50008007C00F002805D1C64800784008400000
:103E6000C4490870C3480078C007C00F002820D09C
:103E7000C04800788007C00F002805D1BE48C06840
:103E8000FF215F31884205DABA4800788007C00F09
:103E9000002807D0B948007940084000401CB749C5
:103EA000087110E0B548007940084000B349087136
:103EB00009E0B2480069002805D1B04800794008FF
:103EC0004000AE490871AE48007840084000401CF0
:103ED000AB490870AB48007840084000A949087019
:103EE000A948007840084000401CA749087000E03D
:103EF00000BF00BF9C488079012805D0A348007806
:103F000080218843A14908709748007A0A287DDB00
:103F10009F480078C007C00F00287BD196480078E2
:103F2000C007C00F002875D19A480078C007C00F9D
:103F300000286FD198480078C007C00F002869D1C9
:103F400096480078C007C00F002863D187480078E2
:103F5000C007C00F002805D1844800788007C00F33
:103F6000002857D0834800788007C00F002851D11F
:103F70007F48C07A07284DDA7D48C07A002849D0AA
:103F800082488078052845D07948203080790128FA
:103F900040D07E48C07805283CD075482030007954
:103FA0000E2837D0724820300079012832D070486E
:103FB000203000790F282DD06D482030407901281D
:103FC00028D06B4820304079102823D06F484078A3
:103FD00005281FD06D48407905281BD06B48C07953
:103FE000052817D06948007A052813D0674800785B
:103FF000C00900280ED15F48007840084000401CEE
:104000005C49087059484078102100E002E088437C
:1040100056494870554800784007C00F5349097801
:10402000C907C90F884211D0504800780007C00F57
:104030004E4909788907C90F884207D04D48007852
:10404000400840004B4908700020886247480078CB
:104050000007C00F454909788907C90F88420BD06E
:10406000424800788007C00F002805D144480078F6
:104070004008400042490870494800780007C00FD6
:10408000002844D03B480078400840003949087077
:104090003A48007940084000384908710846203005
:1040A0000078400840002031087036480078400809
:1040B00040003449087032480078400840003049D8
:1040C000087031480078400840002F490870354892
:1040D0000078400840003349087000202549886274
:1040E000224840781021884320494870084640788B
:1040F000042188431D4948700846407808218843B8
:104100001A49487000201A494861C86188611748F7
:104110000078042188431549097889000422114058
:10412000084312490870084600780007C00F097854
:104130008907C90F884207D00C4800788007C00F54
:10414000002801D102F066FD084800780821884364
:10415000064909788907C90FC90008221140084398
:104160000249087010BD0000A00700203F00002099
:10417000B4090020C40800206409002008090020B8
:104180004C0000205400002081000020E80700209F
:1041900050090020780900208C090020A009002087
:1041A000DC0900205C0000207047000010B56B485F
:1041B000007B002806D0012820D002282ED003281A
:1041C00071D13BE0664800788021884380306449A3
:1041D0000870002061494860886062480078800764
:1041E000C00F002809D0604800788007C00F002861
:1041F00003D00846007B401C0873ABE0574840687A
:1042000056498968884208D1584854494860002076
:1042100088600846007B401C08739BE04F4840685C
:104220004E498968884208D100204C49486088601E
:1042300048730846007B401C08738BE04748407B6E
:1042400003000BF017FB08052231324F6E717E839D
:1042500042484068002817D140488068002813D1A0
:104260003E48807B002806D101203C498873FF200E
:104270005630486003E0FF205630384948603748E0
:10428000407B401C3549487361E034484068002851
:1042900008D132488068002804D13048407B401C57
:1042A0002E49487353E054E051E031484078C0094A
:1042B000002804D12F4840682849886008E02B482E
:1042C00026498860264800781021884324490870D0
:1042D0002248406821498968884202D104201F4948
:1042E000487334E022484078C009002818D121489A
:1042F0008068002814D01F488068184988600846E4
:1043000040688968884202D100201A4988600620E6
:1043100012494873124800781021884310490870E8
:1043200015E009F033FB12E00C4840680B4989683E
:10433000884205D104200949487300200D4988604E
:1043400005E0012040020549886000E000BF00BF91
:1043500000E000BF00BF09F04BFA10BD940400203C
:104360002F000020780000206800002005090000D0
:104370003F000020A404002010B505F01DFC0B4AEE
:1043800012789207D10F0A4A12789207D00F0022B2
:1043900007F0C2FC400002210840044604480078AF
:1043A000884320430249087010BD00002D00002002
:1043B0002E00002010B50246072A00DA07221E2A26
:1043C00000DD1E2214460D3C23000BF053FA140BA3
:1043D0000D0F11131517191B1D1F21232527292B1D
:1043E0002D2F3133372027E0392025E03B2023E0F3
:1043F0003D2021E03F201FE040201DE042201BE047
:10440000442019E0462017E0482015E0492013E039
:104410004B2011E04D200FE04F200DE051200BE02C
:10442000522009E0542007E0562005E0582003E020
:10443000592001E0482000BF00BF002901D0431CE3
:10444000D8B2094B9B79042B06D1372800DA3720E4
:10445000512807DD512005E0402800DA40205A2885
:1044600000DD5A2010BD0000A007002001460020FA
:1044700038291DD03A291BD03C2919D03E2917D004
:10448000412915D0432913D0452911D047290FD0F0
:104490004A290DD04C290BD04E2909D0502907D0DC
:1044A000532905D0552903D0572901D05A2900D1C5
:1044B0000120704710B5FE48C0788006C00F002864
:1044C0007ED0FC48407903287BD1FB480078400827
:1044D0004000F94909788907C90F0843F64908706F
:1044E0000846007802218843F3490870F348C078F1
:1044F00008218843F0490978C9000822114008437F
:10450000EE49C8700846C07E08218843EA49097808
:10451000C90011400843E949C876E7480078C00758
:10452000C00F002805D10320E5494873E548E64956
:104530004860E648007804218843E449097809077F
:10454000C90F8900042211400843E0490870084659
:10455000007808218843DD490870D848007C102184
:104560008843DA4909784907C90F09011022114027
:104570000843D249087408461A30C0790421884398
:10458000D24909784907C90F89000422114008431C
:10459000CA491A31C871C648007804218843C44901
:1045A00009780907C90F890011400843C0490870FC
:1045B0000846007808218843BD490870BF4801E0DB
:1045C0000AE21EE0C07B10218843B94909784907F7
:1045D000C90F0901102211400843B849C8730846A1
:1045E0001A30C07910218843B14909784907C90FA9
:1045F000090111400843B1491A31C8710220AD497F
:104600004871AB48C0784007C00F002806D0A948C1
:104610004079012808D102F079FC05E0A5484079ED
:10462000022801D103F07CFB0024A1480079000797
:10463000000F03000BF01EF90933060F1833333354
:104640002A2133009B488079042803D0042099490B
:104650008871012424E097488079012803D0012043
:104660009449887101241BE092488079002803D086
:10467000002090498871012412E08E488079032837
:1046800003D003208B498871012409E0894880798F
:10469000022803D0022087498871012400E000BF6E
:1046A00000BF002C4CD000208949C872087389488B
:1046B00000784008400087490870084600780221C9
:1046C000884384490870084600781021884381494E
:1046D000087008460078202188437E490870084603
:1046E0004078102188437B49487008460078402173
:1046F0008843784908700846407802218843754904
:1047000048706C488079012817D173480A214156B6
:10471000092903DA07206E49C87111E06E480A21A1
:104720004156202903DD1E206949C87108E06A4806
:10473000807A801E6649C87102E018206449C871F9
:104740005B484079C006C00E1E21081AC4B26048FA
:104750004078A04205D05F484078022188435D49F7
:10476000487053484079C006C00E1E21081A5849A7
:104770004870084640781E2801DD1E2048705448C5
:104780004078072802DA07205149487051480078DC
:104790004006C00F002803D04D4840784C4948726D
:1047A00044488079002803D1494840784849C87076
:1047B00040488079042803D14548407844494871ED
:1047C00000203C4988610024394880794007400F27
:1047D00003000BF04FF807052A0E172A20292A009C
:1047E00035484078042800D001240420324948701C
:1047F0001CE031484078032800D0012403202E49D2
:10480000487013E02C484078022800D00124022090
:10481000294948700AE028484078012800D001243E
:1048200001202549487001E000E000BF00BF002CD6
:1048300017D02848407810218843264948700846F8
:1048400000784021884323490870084640780221B7
:104850008843204948701848007818218843164931
:104860000870134880798006400F072807D1124846
:10487000007840084000401C0F49087005E00E48D1
:104880000078400840000C49087000240848C07BAC
:104890004007400F002824D10E4800784006C00F82
:1048A000002800D001240B4800784021884315E0FF
:1048B000F0090020A0070020080900207808002047
:1048C0009404002005090000A40400205C000020DE
:1048D000B40900203F000020500900203F49087023
:1048E0000DE03E4800784006C00F002800D10124AA
:1048F0003A48007840218843403038490870002CFD
:104900002BD0364800784006C00F002808D0344825
:10491000407F3449487232481A308079887209E001
:104920003048407A2F4948700846807A88700020C5
:104930004872887229484078102188432749487076
:1049400008464078022188432449487000202649BF
:104950008861C8612549887009E0254AD2795207E3
:10496000D10F204A5078FFF725FD1E4988701B485B
:1049700000784006C00F002803D01A4880781949F3
:1049800088721B48C0790007C00F002807D017485D
:10499000007840084000401C1449087005E01348A6
:1049A000007840084000114908700E48007840081F
:1049B00040000F49097A0906C90F084309490870E0
:1049C0000B48C078202188430949C8700448007802
:1049D000082188430249087010BD00003F000020F4
:1049E00078080020B4090020A00700200809002052
:1049F000F009002070B50120FC4908770021FB4830
:104A00004177FB48807903000AF034FF05040C1459
:104A10001C242C00F548807F00090001401CF3494C
:104A2000887720E0F148807F00090001C01CEF4931
:104A3000887718E0ED48807F00090001801CEB4971
:104A4000887710E0E948807F00090001401DE749B0
:104A5000887708E0E548807F00090001001DE349F0
:104A6000887700E000BF00BFE1484079002803D00C
:104A7000DF484079012806D1DC48807F1021884337
:104A8000DA49887706E0D948807F102188431030C2
:104A9000D6498877D548807F20218843D3498877B5
:104AA0000846807F40218843D04988770846807F28
:104AB00080218843CF4949788907C90FC9018022DD
:104AC00011400843C9498877CB484078072811DB53
:104AD000C94840781E280DDC0846C07F40094001C7
:104AE000C54949781E22511AC906C90E0843BF4953
:104AF000C87706E0BD48C07F400940010830BB4987
:104B0000C877BE484078042806D1B848C07FE02165
:104B10008843B649C8771EE0B8484078012807D1D5
:104B2000B248C07FE0218843A030B049C87712E086
:104B3000B2484078022807D1AC48C07FE0218843C2
:104B40006030AA49C87706E0A848C07FE0218843C2
:104B50004030A649C877A6488079012805D1A348E6
:104B6000C07FE0218843A149C877A2480078400669
:104B7000C00F002806D09D48C07FE0218843403008
:104B80009A49C8779C4880789D490978884210D016
:104B9000994880789A490978884203DD012099492B
:104BA000087002E000209749087093488078944983
:104BB00008709448007801280FD18F498878FFF752
:104BC00055FCC307DB0F89481C30007940084000C2
:104BD000184386491C31087107E084481C3000796D
:104BE0004008400081491C31087180481C30007920
:104BF000022188437D491C3108710846007904214F
:104C000088437A491C310871084600790821884395
:104C10007A4909784907C90FC90008221140084399
:104C200072491C31087108460079102188436F4988
:104C30001C31087108460079202188436B491C31DA
:104C4000087108460079402188436F490978890135
:104C500040221140084365491C310871084600791B
:104C600080218843684909788907C90FC9018022D2
:104C7000114008435D491C3108710846407980089D
:104C800080004871084640790421884357491C3107
:104C90004871084640790821884354491C314871BD
:104CA000084640791021884350491C314871084614
:104CB0004079202188435149097849012022114037
:104CC00008434A491C3148710846407940218843CD
:104CD0004A490978890140221140084343491C315F
:104CE0004871084640798021884343490978C901C1
:104CF0008022114008433D491C31487142480078E8
:104D00004007C00F00280FD03F480078C007C00FF1
:104D1000002809D03C4948683C21FBF779FAC1B228
:104D200032481C30817103E0002130481C30817111
:104D3000354800784007C00F00280ED03248007870
:104D4000C007C00F002808D02F4948683C21FBF756
:104D50005FFA26481C30C17103E0002123481C3053
:104D6000C171294800784007C00F00280FD026489D
:104D700000788007C00F002809D0234948683C21EB
:104D8000FBF746FAC1B219481C30017203E000215A
:104D900016481C3001721C4800784007C00F0028DC
:104DA0000ED0194800788007C00F002808D0164997
:104DB00048683C21FBF72CFA0C481C30417203E098
:104DC00000210A481C304172002108481C308172C1
:104DD0002430007E042819D104481C30807A400811
:104DE0004000401C01491C31887238E0F009002065
:104DF000A00700203F000020B4090020080900207F
:104E00008D0000208C00002044090020FE48007E18
:104E1000032809D1FC482438807A02218843801C69
:104E2000F949243988721AE0F748007E022809D12E
:104E3000F5482438807A04218843001DF24924393A
:104E400088720CE0F048007E012808D1EE48243832
:104E5000807A082188430830EB4924398872EA486F
:104E60002438807A10218843E7492439887208461B
:104E7000807A20218843E449243988720846807A60
:104E800040218843E049243988720846807A80218D
:104E90008843DD4940390978C906C90FC901802214
:104EA00011400843D849243988720021D648243853
:104EB000C172C07A40084000D3492439C872D3482F
:104EC0000078C006C00F002807D00846C07A02212B
:104ED0008843801CCC492439C872CB482438C07A16
:104EE00004218843C8492439C872C9480078C006DB
:104EF000C00F002805D1C7480078C006C00F0028A1
:104F000008D0C1482438C07A082188430830BE49F7
:104F10002439C872BF4800784006C00F002808D066
:104F2000B9482438C07A102188431030B649243952
:104F3000C872B94800790007C00F002808D0B248ED
:104F40002438C07A202188432030AF492439C872E0
:104F5000B2480078C007C00F002808D0AA482438FB
:104F6000C07A402188434030A7492439C872AC48F0
:104F70000078C007C00F002808D0A3482438C07AA2
:104F8000802188438030A0492439C872A348C4686E
:104F900019204001844200DD0446C720C0438442FA
:104FA00000DA0446C834A005010E9748243801737E
:104FB000407B0C218843A1000C22114008439249F8
:104FC000243948730846407B8008800048730846AF
:104FD000407BC02188438C49243948739048C46879
:104FE00019204001844200DD0446C720C0438442AA
:104FF00000DA0446C83484482438407B3021884392
:1050000021013022114008437F4924394873A0050B
:10501000010E7D4824384176824800784006C00F52
:10502000002809D078482438807BC008C000401C84
:1050300075492439887307E073482438807BC00899
:10504000C0007149243988736F482438807B7821E7
:10505000884328306C49243988730846807B802136
:105060008843803068492439887300216648243891
:10507000C1736D48007801280FD16C498878FFF71B
:10508000F5F9C307DB0F6048243800794008400079
:1050900018435D492439087107E05B4824380079DA
:1050A000400840005849243908715E48007840069D
:1050B000C00F002823D05D48457A5A480078C007C1
:1050C000C00F002805D0681CC5B21E2D0CDD1E25A2
:1050D0000AE0544800788007C00F002804D0681EFA
:1050E000C5B2072D00DA072547482438C07B4009A0
:1050F0004001E906C90E084343492439C873002119
:10510000414824380174474800784006C00F002801
:1051100023D04648457A43480078C007C00F00288E
:1051200005D0A81CC5B21E2D0CDD1E250AE03D4889
:1051300000788007C00F002804D0A81EC5B2072D34
:1051400000DA072530482438007C40094001E90690
:10515000C90E08432C492439087400212A482438F0
:1051600041748174C174017541758175C175017691
:105170002C4800784006C00F00287AD02B48457A8A
:1051800028480078C007C00F002805D0A81CC5B269
:105190001E2D0CDD1E250AE0224800788007C00F76
:1051A000002804D0E81EC5B2072D00DA07251648EE
:1051B0002438407C40094001E906C90E08431249E1
:1051C000243948740846807C40094001E906C90E2C
:1051D00008430D49243988740846C07C40094001C1
:1051E000E906C90E084308492439C8740846007DF9
:1051F00040094001E906C90E0843034924390875EE
:105200000846407D400913E0300A00203D000020A0
:105210003E000020A00700200809002050090020BF
:10522000640900203F0000208C000020B409002009
:105230004001E906C90E0843FE4948750846807DCD
:1052400040094001E906C90E0843FA498875084635
:10525000C07D40094001E906C90E0843F549C875FB
:105260000846007E40094001E906C90E0843F1499D
:1052700008760021EF488176C1760177EE49C8684B
:105280000A21FAF7C5FFC1B2EA484177EB48C46882
:105290000A212046FAF7C6FF0446502C00DD5024B0
:1052A0001320C043844200DA04461434E148847772
:1052B000E348C4680A212046FAF7B4FF0446502C9C
:1052C00000DD50241320C043844200DA0446143425
:1052D000D848C477DB48C4680A212046FAF7A2FF01
:1052E0000446502C00DD50241320C043844200DAD1
:1052F00004461434CF4820300470CF49886A0A210C
:10530000FAF786FFC1B2CB4820304170CE484178D1
:10531000C84820308170CC484078002808D1C54862
:105320002030C07801090901C2482030C17008E06E
:10533000C0482030C078010909010F31BD48203034
:10534000C170BC482030C07840218843BF490978EB
:105350008907C90F8901402211400143B548203017
:10536000C170C078802188430146B2482030C170A6
:1053700000210171B6480078C006C00F002805D191
:10538000B4480078C006C00F002808D0A9482030D3
:10539000007941084900491CA64820300171A54800
:1053A00020300079022188430146A2482030017153
:1053B000A3480078C007C00F002808D09D482030BF
:1053C000007904218843011D9A48203001719948D1
:1053D0002030007908218843014696482030017129
:1053E000007910218843014692482030017193488A
:1053F0000078C007C00F002808D08E482030007900
:105400002021884341188B48203001718D48007855
:10541000C007C00F002808D08648203000794021FE
:105420008843411883482030017187480078C006BE
:10543000C00F002808D07F482030007980218843A1
:1054400041187C482030017100217A482030417198
:105450007948203000780007C00F002808D0754830
:105460002030407941084900491C72482030417180
:105470007948407AF12808D16E48203040790221DD
:105480008843811C6B482030417172480078800647
:10549000C00F002808D06748203040790421884395
:1054A000011D644820304171624820304079082154
:1054B000884301465F48203041714079102188437C
:1054C00001465C48203041714079202188430146E3
:1054D0005848203041715F4800784007C00F0028CD
:1054E00008D0544820304079402188434118514821
:1054F00020304171574800780007C00F002808D0BD
:105500004C48203040798021884341184948203058
:105510004171002147482030817150480078800750
:10552000C00F002808D04348203080794108490046
:10553000491C404820308171484800784007C00F1E
:10554000002808D03B482030807902218843811C04
:10555000384820308171414800780007C00F00288A
:1055600008D034482030807904218843011D314817
:10557000203081713A488079012808D12D482030A7
:1055800080790821884341182A48203081713448A5
:10559000407901280FD03248407910280BD030488C
:1055A0000079012807D02E4800790F2803D02C4815
:1055B00000790E2808D11F482030807910218843B7
:1055C00041181C48203081711F4800788006C00FA8
:1055D000002808D0174820308079202188434118BE
:1055E000144820308171184800780007C00F002847
:1055F00008D01048203080794021884341180D4858
:10560000203081710B482030807980218843014609
:105610000848203081710021C17112480078C0070C
:10562000C00F002822D003482030C07904218843CD
:10563000011D19E00C0A0020080900208C09002037
:1056400078090020A0090020C40800204C00002098
:105650003D000020A007002078080020E807002077
:10566000D4090020640900206348C17163480078B0
:10567000C007C00F002806D05F48C07908218843C2
:1056800041185D48C1715E4800788006C00F00284F
:1056900006D05948C0791021884341185648C17135
:1056A0005848407C4007C00F002806D05248C079B7
:1056B0004021884341185048C171FF214E48017272
:1056C00041728172C172017341738173C17301743C
:1056D00041748174C174017541758175C17501761C
:1056E00000214176484800780007C00F002806D006
:1056F0004148407E41084900491C3F4841764348A3
:10570000407AE42806D13C48407E02218843811C2F
:10571000394841763848407E04218843014636485E
:105720004176407E08218843014633484176407ED9
:105730001021884301463048417635480078C0073B
:10574000C00F002806D02C48407E202188434118F5
:1057500029484176002128488176807E4108490009
:10576000274800788007C00F0143234881762948E5
:10577000806A19214901884207D91F48807E022189
:10578000884301461C48817606E01B48807E022142
:105790008843811C184881761748807E04218843FD
:1057A000014615488176807E082188431A49097888
:1057B0008907C90FC9000822114001430E488176AC
:1057C000807E1021884341180B488176807E2021FD
:1057D0008843411808488176807E402188434118DB
:1057E00005488176807E8021884341180248817671
:1057F0000021C17670BD00002C0A00205009002055
:10580000C408002042080020DC090020780800209D
:1058100004080020080900205400002070B56D48DD
:1058200000784007C00F002819D06B480079322853
:1058300005DA69480079401C674908710FE00020CB
:1058400065490871634800780421884361490870FC
:105850000846007802218843801C5E4908705D4834
:1058600000788007C00F00286FD00F215B4800F040
:1058700037FE054659480078542866D15748407885
:10588000442862D15548C07BA84255D1002405E088
:105890005248005D52490855601CC4B2102CF7DB19
:1058A0004F4880780C2835D14D48C0784D498876CE
:1058B0004B4801794B48C1764948417949480177BD
:1058C00047488179474841774548C17945488177BC
:1058D0004348017A4348C1774148417A41481A30E8
:1058E00081713F48817A3F481A30C1713C48C17A82
:1058F0003C481A3001723A48017B3A481A304172EA
:105900003748417B37481A3081723548817B3548AA
:105910001A30C1720020304988602E480078082172
:1059200088432C490870084600781021884329498B
:10593000087000202849C860264800780221884362
:105940002449087000202449C87023488068192819
:1059500004D3022020490870002048701E48806847
:10596000401C1D4988604B21C900884222D308464B
:10597000194988601748007808218843083015497C
:1059800008701548C068401C1349C8604B210901C4
:10599000884209D308461049C8600E480078102193
:1059A000884310300B49087002200B490870002012
:1059B00048700EE0074800780821884305490870C0
:1059C00008460078102188430249087000200249E7
:1059D000C86070BD3D000020B8060020040700200C
:1059E000140700207808002010B5542036490870AC
:1059F000442048701820887034488078C870334834
:105A0000C078087131480079487130484079887110
:105A10002E488079C8712D48C07908722B48007AC9
:105A200048722A48407A88722848807AC872274883
:105A3000C07A08732548007B48732448407B8873EC
:105A40002248807BC8732148C07B08741F48007CB3
:105A500048741E48407C88741C48807CC8741B486D
:105A6000C07C08751948007D48751848407D8875C8
:105A70001648807DC8751548C07D08761348007E9D
:105A800048761248407E88761B210F4800F028FD9A
:105A90000D49C876002408E00B48005D0C49085504
:105AA000002009490855601CC4B21C2CF4DB0948CD
:105AB0000078002806D10848007840084000401CC3
:105AC0000549087010BD0000E80600207808002095
:105AD000CC060020B80600203D00002030B57D4CEB
