:020000040000FA
:10000000C80E00209D010000FF6F0000FB6F000084
:1000100000000000000000000000000000000000E0
:10002000000000000000000000000000FD7A000059
:100030000000000000000000FD75000031D8000045
:10004000AF010000AF010000AF010000AF010000F0
:10005000AF010000AF010000AF010000AF010000E0
:1000600079DC0000AF010000AF010000AF0100002B
:10007000AF010000AF010000AF010000AF010000C0
:10008000AF010000AF010000AF010000AF010000B0
:10009000AF010000AF010000AF010000AF010000A0
:1000A000A9ED0000AF010000B1ED0000AF010000BC
:1000B000B9ED0000AF010000AF010000AF0100008A
:1000C00000F002F800F03EF80CA030C80838241800
:1000D0002D18A246671EAB4654465D46AC4201D180
:1000E00000F030F87E460F3E0FCCB6460126334274
:1000F00000D0FB1AA246AB4633431847D0FC0000A1
:10010000F0FC0000103A02D378C878C1FAD8520740
:1001100001D330C830C101D504680C6070470000BD
:100120000023002400250026103A01D378C1FBD813
:10013000520700D330C100D50B6070471FB51FBDFB
:1001400010B510BD00F014F91146FFF7F7FF0FF0DE
:10015000F3FB00F02CF903B4FFF7F2FF03BC00F04F
:1001600033F9000070B505460C46164602E00FCC88
:100170000FC5103E102EFAD2082E02D303CC03C5B1
:10018000083E042E07D301CC01C5361F03E02178B9
:100190002970641C6D1C761EF9D270BD074880471B
:1001A00007480047FEE7FEE7FEE7FEE7FEE7FEE75B
:1001B00004480549034A054B7047000071DC000004
:1001C000C1000000C80A0020C80E0020C80A002094
:1001D00001E004C0091F0429FBD28B0701D502806E
:1001E000801CC90700D00270704700290BD0C307DC
:1001F00002D00270401C491E022904D3830702D595
:100200000280801C891EE3E70022EEE70022DFE780
:10021000002203098B422CD3030A8B4211D3002303
:100220009C464EE003460B433CD4002243088B42DD
:1002300031D303098B421CD3030A8B4201D394466A
:100240003FE0C3098B4201D3CB01C01A524183095D
:100250008B4201D38B01C01A524143098B4201D317
:100260004B01C01A524103098B4201D30B01C01A42
:100270005241C3088B4201D3CB00C01A52418308BC
:100280008B4201D38B00C01A524143088B4201D3E9
:100290004B00C01A5241411A00D201465241104649
:1002A00070475DE0CA0F00D04942031000D34042BE
:1002B000534000229C4603098B422DD3030A8B42F4
:1002C00012D3FC22890112BA030A8B420CD3890192
:1002D00092118B4208D3890192118B4204D3890178
:1002E0003AD0921100E08909C3098B4201D3CB01B6
:1002F000C01A524183098B4201D38B01C01A52416B
:1003000043098B4201D34B01C01A524103098B426E
:1003100001D30B01C01A5241C3088B4201D3CB0059
:10032000C01A524183088B4201D38B00C01A52413C
:10033000D9D243088B4201D34B00C01A5241411A13
:1003400000D20146634652415B10104601D3404241
:10035000002B00D54942704763465B1000D34042F2
:1003600001B50020C046C04602BD704770477047C7
:10037000754600F025F8AE46050069465346C008AC
:10038000C000854618B020B5FFF712FF60BC0027FB
:100390004908B6460026C0C5C0C5C0C5C0C5C0C551
:1003A000C0C5C0C5C0C5403D49008D46704710B5A9
:1003B0000446C046C0462046FFF7CDFE10BD0000F3
:1003C00000487047640A002001491820ABBEFEE7D0
:1003D00026000200704700000146024841610120EA
:1003E0007047000000100040002005494968890757
:1003F000C90F002901D0012000E000207047000053
:1004000000100040164840688006800F032804D181
:10041000134800680005000D7047114840688006C9
:10042000800F022804D10E4800680005800DF3E714
:100430000B4840688006800F012804D108480068F6
:100440000005000EE8E7064840688006800F002897
:1004500004D1034800680005800EDDE70020DBE7DB
:10046000001000403D49096849084900491C3B4AC1
:1004700011601146096804229143091D374A116031
:1004800036494039496830229143027A12013023BB
:100490001A401143314A403A51601146896812149A
:1004A00091432E4A403A916011468968082291434F
:1004B0000278D20008231A401143284A403A91603A
:1004C00011468968C908C90042785207520F114382
:1004D000224A403A916011468968032212029143F0
:1004E0008278120203231B021A4011431B4A403A2E
:1004F00091601146896892149143C27812030123D6
:100500001B031A401143154A403A91601146C968CD
:10051000490949010279D206D20E11430F4A403AE5
:10052000D160114689681F22120491438279120416
:100530001F231B041A401143084A403A9160114698
:10054000896812159143C279920201239B021A40D5
:100550001143024A403A9160704700004010004049
:10056000F0B585B004460F46002C04D1384644301F
:10057000C0B2039003E038463F30C0B20390A00001
:100580003049085830490968884201D8002556E0AA
:10059000A0002C4909582D48C069814203D3002C82
:1005A00001D187254BE0A00026490958274880380B
:1005B000406F814203D3002C01D07D253FE03D46B2
:1005C00039E0A80020490E58681C800008580290A5
:1005D000A0001C490858B0422BD3A000095802982B
:1005E000814226D20298B0421FD90298801BC0B225
:1005F0000190A00013490858801B00900098C0008B
:100600000090A0000858801B410000980818009036
:1006100001990098FFF7FCFD0D4908550846005D5B
:10062000092805DD0920085502E000200849085581
:1006300004E0681CC5B203988542C2DB00BF2846AF
:1006400005B0F0BD8004002000020020000400205E
:100650001600002070B50446002C06D1112252016C
:1006600023492448FFF77EFD0EE0032C06D1FF222C
:10067000F93221491F48FFF775FD05E0FF22F932E5
:100680001E491C48FFF76EFDA0001D4908580F28A1
:100690002CD3A00008581B49884227D8204600F0D8
:1006A00039F8012822D1A0001749095817480069D4
:1006B000814203D3002C01D144250CE0A000124953
:1006C00009580C488030C06F814203D3002C01D000
:1006D0003F2500E0002529462046FFF741FF06465A
:1006E0000B48005DB04201D00948065570BD0000BE
:1006F000007B0000000200200076000080780000EF
:1007000070040020D70F00008004002000030020A8
:1007100012000020014688000E4A1058002807D118
:1007200088000D4A10588A000A4B985001207047E3
:100730008800084A10588A00074B9A58904207D000
:1007400088001A4610588A00024B98500120EEE7A4
:100750000020ECE780040020700400200748407867
:100760004006C00F002808D005480179807A8142F0
:1007700003DD0348807A0249087170473C0000207D
:10078000C00800200F484078C007C00F002818D0CC
:100790000D4840690D49884204D20D48407D0C49FE
:1007A00008710EE00A48007D094908710648406951
:1007B0000849884205D30348407840084000014971
:1007C000487070473C0000209C070020A08C00006F
:1007D000C0080020401901003F490978C907C90F26
:1007E000002977D03D494979052910D13C4909793B
:1007F000002908DD3A4909790F2904DC38490A79CA
:100800003849885C5AE03749891F087C56E03349EB
:100810004979042910D132494979002908DD304944
:1008200049790F2904DC2E494A792E49885C45E034
:100830002C49891F087C41E028494979032910D1B6
:1008400027498979002908DD254989790F2904DCA0
:1008500023498A792349885C30E02249891F887BB3
:100860002CE01E494979022918D11F4989790129AB
:1008700003D11C49891F887B20E01949C9790029C7
:1008800008DD1749C9790F2904DC1549CA791549CA
:10089000885C13E01349891F887B0FE01049097AAF
:1008A000002908DD0E49097A0F2904DC0C490A7A6F
:1008B0000C49885C02E00B49891F087B0949891FA4
:1008C0000979814207DD002805D00649891F087192
:1008D00001E0FFE700BF70473C0000200009002056
:1008E0008E010020C60800209C07002039480078AF
:1008F000C007C00F00286BD137488078C007C00FF1
:10090000002865D034480078C007C00F00283ED0CA
:10091000324840781E2816D13148807B00280BDDF4
:100920002F48807B102807DA2D48817B2D48405CBA
:100930002C49891FC8704BE02A48801F407D2949F7
:10094000891FC87044E0254840781D2840D12448BC
:10095000C07B00280BDD2248C07B102807DA204826
:10096000C17B2048405C1F49891FC87005E01D48B5
:10097000801FC0791B49891FC8701A48801FC07822
:10098000192825DD19201749891FC87020E0124851
:1009900000788007C00F00281AD01048407811282E
:1009A00016D10F48007C00280CDD0D48007C102873
:1009B00008DA0B48017C0B481030405C0949891F5C
:1009C000C87005E007481030C07B0649891FC87011
:1009D00070470000000800203C000020AC09002007
:1009E000AE010020C608002010B5E4484078002879
:1009F0003ED1E248807800283AD1E048C07800280B
:100A000036D1DE484079002832D1DC48C079002850
:100A10002ED1DA48007A00282AD1D94880790628D0
:100A200026D10020D5494872D6488078C007C00F2B
:100A3000002807D1D4480078C007C00F002801D192
:100A400000F0FAFAD148C078D04908710020CB49AB
:100A50008861FFF7C1FE00F0BBFD00F009FD00F06A
:100A6000B3FAFFF743FFFFF779FE01F017F983E1CF
:100A7000C2484078042817D0C0488078042813D092
:100A8000BE48C07804280FD0BC48407904280BD059
:100A9000BA48C079042807D0B848007A042803D09F
:100AA000B7488079022827D1B448407A002807D077
:100AB000B248407A012803D0B048407A022806D1D3
:100AC000B2484078B149C8700846C0780871AB4850
:100AD0008069401CA9498861642809D30020886185
:100AE000AA48C078401EA949C8700846C078087155
:100AF0000420A24948723FE1A0484078032817D05B
:100B00009E488078032813D09C48C07803280FD0D3
:100B10009A48407903280BD09848C079032807D019
:100B20009648007A032803D095488079032870D12D
:100B30009248407A002807D09048407A012803D094
:100B40008E48407A022806D1904840788F49C87074
:100B50000846C078087189484078032807D087483C
:100B60008078032803D08548C078032814D18348AF
:100B70008069401C814988617D21C900884243D336
:100B800000207E4988618148C078401E7F49C87036
:100B90000846C078087137E078484079032807D0C4
:100BA0007648C079032803D07448007A032814D10A
:100BB00072488069401C71498861FF21F531884283
:100BC00022D300206D4988617048C078401E6F496B
:100BD000C8700846C078087116E069488079032813
:100BE00012D166488069401C64498861684988421E
:100BF0000AD30020614988616448C078401E634977
:100C0000C8700846C078087103205C494872B3E098
:100C1000FFE75A484078022817D0584880780228C1
:100C200013D05648C07802280FD054484079022883
:100C30000BD05248C079022807D05048007A0228C9
:100C400003D04F488079042813D1FFF79BFDFFF7AD
:100C5000C3FD00F0BDFC00F00BFC00F0B5F9FFF7A0
:100C600045FEFFF77BFD01F019F802204349487269
:100C700082E042484078012817D040488078012817
:100C800013D03E48C07801280FD03C484079012855
:100C90000BD03A48C079012807D03848007A01289B
:100CA00003D037488079052863D13448407801283B
:100CB0000BD032488078012807D03048C07801280E
:100CC00003D02F488079052819D12C488069401C11
:100CD0002A4988612E49884237D3002027498861F4
:100CE0002A48C0782949897888422EDA2748C0786E
:100CF000401C2649C8700846C078087125E01F4886
:100D00004079012807D01D48C079012803D01B482D
:100D1000007A012819D119488069401C1749886157
:100D20007D21C900884210D30020144988611748EA
:100D3000C07816498978884207DA1448C078401C80
:100D40001249C8700846C0780871FFF71BFDFFF70D
:100D500043FD00F03DFC00F08BFB00F035F9FFF7A0
:100D6000C5FDFFF7FBFC00F099FF01200349487225
:100D700002E005200149487210BD0000E407002090
:100D8000CC0900203C00002048090020C0080020B9
:100D9000B80B000010B585488079012805D1844939
:100DA000C8790DF059FF044604E0814948780DF0F8
:100DB00053FF04467F4800788007C00F00286AD0A0
:100DC0007D480078C007C00F002853D17B480069D8
:100DD0002330A04203DC0F2079494871BAE07748FC
:100DE00000691E30A04203DC0E2075494871B1E055
:100DF000724800691930A04203DC0C207049487128
:100E0000A8E06E4800691430A04203DC0A206C4957
:100E100048719FE0694800690F30A04203DC082058
:100E20006749487196E0654800690A30A04203DCD2
:100E30000720634948718DE060480069401DA04269
:100E400003DC05205E49487184E05C480069A042EB
:100E500003DC00205A4948717CE058480069401F73
:100E6000A04203DC00205649487173E00020544939
:100E700048716FE05348407F002808DD5148407FAB
:100E80000F2804DC4F48407F4D49487162E00A203A
:100E90004B4948715EE047480078C007C00F002802
:100EA00058D04648016920462330814203DB0F2099
:100EB000434948714EE04148016920461E30814255
:100EC00003DB0D203E49487144E03C48016920465F
:100ED0001930814203DB0B20394948713AE0374829
:100EE000016920461430814203DB092034494871EE
:100EF00030E03248016920460F30814203DB072091
:100F00002F49487126E02D48016920460A30814268
:100F100003DB06202A4948711CE028480169601D4E
:100F2000814203DB04202649487113E0234800690D
:100F3000A04203DB0020224948710BE01F480169F1
:100F4000601F814203DB00201D49487102E0002040
:100F50001B49487117480078C007C00F00280DD002
:100F600012488079012802D1082015494871144897
:100F70004179801D405C124988700FE00D4800786F
:100F80008007C00F002806D00D4841791630405C1C
:100F90000B49887002E00020094988700848807871
:100FA0000749C8700846C078087110BD9C0700202A
:100FB000AC0900203C000020000800204809002067
:100FC000C00800208E01002018480078C007C00F1C
:100FD000002829D1164800784006C00F002804D107
:100FE00013480078C00900281ED011480078C007B7
:100FF000C00F002809D00F480179C079814213DD64
:101000000C48C0790B4908710EE009480078800748
:10101000C00F002808D007480179C07D814203DD58
:101020000448C07D03490871704700000008002093
:101030003C000020C008002010B5FD488079012840
:1010400005D1FC49C8790DF007FE044604E0F949D2
:1010500048780DF001FE0446F748C06B002878D1AF
:10106000F64840788007C00F00282CD1F34800785C
:10107000C007C00F00280BD0F1480069A04218DA61
:10108000EE48407802218843801CEC49487010E00B
:10109000EA4800788007C00F00280AD0E8480069B5
:1010A000A04206DDE548407802218843801CE349E0
:1010B00048700020DF494861C8618861DE48807857
:1010C000DD49C870D1E1DD4840784007C00F0028F5
:1010D00071D1D848C07A0A2811D1D64840694B212D
:1010E000090188420AD30020D2494861D2480079D8
:1010F000D149C8700846C078401EC870BCE0CD48D1
:10110000C07A092810D1CB484069CE498842F5D32E
:101110000020C8494861C8480079C749C8700846D6
:10112000C078401EC870A7E0C248C07A062811D116
:10113000C0484069C3498842E0D30020BD494861A6
:10114000BD480079BC49C8700846C078401CC870CA
:1011500092E049E1B748C07A052811D1B548406905
:101160004B2109018842C9D30020B2494861B248E5
:101170000079B149C8700846C078401CC8707BE04F
:10118000AC48C07A0B2877D1AA4948694B2109019C
:10119000FFF73EF8AC4881420ED1A6484069401C9A
:1011A000A4494861A4480079A349C8700846C0789A
:1011B000801EC87016E073E09E4948694B21C90043
:1011C000FFF726F8A14881420CD19A484069401C9B
:1011D00098494861984800799749C8700846C0788E
:1011E000401EC87095480078C007C00F00281ED068
:1011F000904840699649884206D28E4800699049D5
:101200000969401A0A2812DB8B4800784008400020
:10121000894908708A480078C007C00F002806D1A5
:1012200086484078082188430830844948708348BC
:1012300000788007C00F00281ED07E48406985498D
:10124000884206D27E4800697A490969401A0A280C
:1012500012DB7948007840084000774908707848E8
:101260000078C007C00F002806D1744840780821D4
:1012700088430830714948706E48806975498842D2
:101280000DD26C48C07A092809DB00206949C86181
:101290006A48407804218843001D684948708AE004
:1012A0006449C869E121C900FEF7B2FF6A4881427A
:1012B0000AD100205F49C8615F4800795E49C87063
:1012C0000846C078C01EC8705C480078C007C00FD0
:1012D00000283DD05648807901281CD15549C8794D
:1012E0000DF0BAFC564909691431884252DB524864
:1012F0000078400840005049087051480078C00705
:10130000C00F002846D14D48407808218843083056
:101310004A4948703EE0474948780DF09DFC4849ED
:1013200009691431884235DB4348007840084000A1
:101330004149087042480078C007C00F002829D1F1
:101340003E4840780821884308303C49487021E0F5
:101350003A4800788007C00F00281BD035494878EC
:101360000DF07AFC364909691439884212DC32489A
:101370000078400840003049087031480078C007C4
:10138000C00F002806D12D48407808218843083036
:101390002A4948702748C07A01280CDB2548C07AC2
:1013A000072808DC254840780421884323494870F1
:1013B0002848204988611F48C07A012855DB1D480C
:1013C000C07A042851DC1D484078022188431B491B
:1013D00048700846407804218843184948701648E8
:1013E00080781549C87040E014480078C007C00FE5
:1013F00000280FD00E488079012804D10E48807B48
:101400000D4988702DE00C484179801D405C0A49E7
:10141000887026E0094800788007C00F00281DD09A
:10142000054841791630405C0349887019E0000096
:101430009C070020AC090020C00800203C000020D0
:1014400048090020B80B0000AF040000570200005C
:101450002823000050460000070700000020034931
:101460008870024880780149C87010BDC00800200B
:10147000514909788907C90F002976D04E49497822
:101480008906C90F002911D14C49C968FF22C3320E
:1014900091420ADD4A49C968002906DB4649497874
:1014A000202291432031444A517083E045494979D3
:1014B00005290FD14449497A002908DD4249497A72
:1014C0000F2904DC40494A7A4049885C51E03F4991
:1014D000887A4EE03B49497904290FD13A49497A43
:1014E000002908DD3849497A0F2904DC36494A7A4F
:1014F0003649885C3DE03549887A3AE03149497996
:10150000032910D13049897A002908DD2E49897ACA
:101510000F2904DC2C498A7A2C49885C29E02B4964
:101520001639887F25E027494979022910D12649B3
:10153000C97A002908DD2449C97A0F2904DC224927
:10154000CA7A2249885C14E020491639887F10E065
:101550001D49097B002909DD1B49097B0F2905DC91
:1015600019490A7B1949885C03E01DE017491639BF
:10157000087F164916390979814204DD002802D016
:101580001249163908710D49C968FF22AF329142DC
:1015900010DA0B49C9681E290CDD07494978202259
:1015A0009143054A517005E003494978202291434F
:1015B000014A5170704700003C0000205C09002087
:1015C00084090020000900208E010020D608002098
:1015D00000B5FE4A1278D207D20F002A79D1FC4A10
:1015E0001278D207D20F002A74D0FA4A1279022A4E
:1015F0000AD1F94A507D102802DAF84A115CB1E0AC
:10160000F64A921F117AADE0F24A1279032A0AD102
:10161000F14A107D102802DAF04A115CA2E0EF4A8C
:10162000921F117A9EE0EB4A1279042A0AD1EA4A03
:10163000D07C102802DAE94A115C93E0E74A921F55
:10164000117B8FE0E34A1279052A0AD1E24A907CA5
:10165000102802DAE14A115C84E0E04A921F917B93
:1016600080E0DC4A1279062A0AD1DB4A507C102835
:1016700002DADA4A115C75E0D84A921F117C71E0F7
:10168000D44A1279072A0AD1D34A107C102802DAE8
:10169000D24A115C66E0D14A921F917B62E0CD4A4A
:1016A0001279082A0AD1CC4AD07B102802DACB4A18
:1016B000115C57E0C94A921F117B53E0C54A127969
:1016C000092A0CD1C44A907B102804DAC34A115C61
:1016D00048E0A1E163E0C14A921FD17A42E0BD4AED
:1016E00012790A2A0AD1BC4A507B102802DABB4A76
:1016F000115C37E0B94A921F917A33E0B54A12790A
:101700000B2A0AD1B44A107B102802DAB34A115CC2
:1017100028E0B24A921F517A24E0AE4A12790C2A8C
:101720000AD1AD4AD07A102802DAAC4A115C19E02D
:10173000AA4A921F117A15E0A64A12790D2A0AD1F7
:10174000A54A907A102802DAA44A115C0AE0A34A5A
:10175000921F117A06E09F4A12790E2A02D19F4AFF
:10176000921F91799A4A9278D207D20F002A15D106
:101770009B4AD268AA2A11DA984A921F12791E2A25
:1017800003DA1E22954B9B1F1A71944A921FD2783E
:101790001E2AF0DA1E22914B9B1FDA7007E18C4A59
:1017A00012789207D20F002AF8D08A4A52790F2A6B
:1017B0000BD1894A907D102803DA884A1032115CD7
:1017C000E3E0864A1032917ADFE0824A52790E2AAB
:1017D0000BD1814AD07D102803DA804A1032115C87
:1017E000D3E07E4A1032917ACFE07A4A52790D2ABC
:1017F0000BD1794A107E102803DA784A1032115C36
:10180000C3E0764A1032917ABFE0724A52790C2ACC
:101810000BD1714A507E102803DA704A1032115CE5
:10182000B3E06E4A1032917AAFE06A4A52790B2ADD
:101830000BD1694A907E102803DA684A1032115C95
:10184000A3E0664A1032917A9FE0624A52790A2AEE
:101850000BD1614AD07E102803DA604A1032115C45
:1018600093E05E4A1032917A8FE05A4A5279092AFF
:101870000BD1594A107F102803DA584A1032115CF4
:1018800083E0564A1032917A7FE0524A5279082A10
:101890000BD1514A507F102803DA504A1032115CA4
:1018A00073E04E4A921FD17F6FE04A4A5279072A6D
:1018B0000BD1494A907F102803DA484A1032115C54
:1018C00063E0464A921F917F5FE0424A5279062ABE
:1018D0000BD1414AD07F102803DA404A1032115C04
:1018E00053E03E4A921F917F4FE03A4A5279052ACF
:1018F0000CD1394A20321078102803DA374A1032D6
:10190000115C42E0354A921F917F3EE0314A5279A4
:10191000042A0CD1304A20325078102803DA2F4A9A
:101920001032115C31E02D4A921F517F2DE0294A7F
:101930005279032A0CD1284A20329078102803DAF1
:10194000264A1032115C20E0244A921F117F1CE0CD
:10195000204A5279022A0CD11F4A2032D07810280E
:1019600003DA1E4A1032115C0FE01C4A921FD17E2E
:101970000BE0194A2032D078102803DA174A1032C7
:10198000115C02E0154A921F917D124A5279012A98
:1019900003D0104A5279102A09D1104A921F1278A6
:1019A000520852000D4B9B1F1A7000229A62084A7F
:1019B0001278D207D20F002A03D0064A1279002AE1
:1019C00016D1034A12789207D20F0BE000080020CC
:1019D0003C000020CC0900206E010020C608002039
:1019E00084090020002A3BD01E4A5279002A37D0B1
:1019F0001D4A12798A4210DD00290ED01A4A11714F
:101A00001A4A127880239A438032184B1A701A4669
:101A10005278520852005A7022E0002915D1124A19
:101A2000127852085200104B1A7000229A620F4A24
:101A3000127880239A4380320C4B1A701A465278DF
:101A400052085200521C5A700AE0084A1278802349
:101A50009A43064B1A701A465278520852005A702E
:101A600000BD0000CC090020C00800209C07002019
:101A70000020854A1278D207D20F002A74D0834AF8
:101A80001279022A02D1824A507D4BE07F4A1279B4
:101A9000032A02D17E4A107D44E07C4A1279042A4E
:101AA00002D17B4AD07C3DE0784A1279052A02D1E6
:101AB000774A907C36E0754A1279062A02D1744A38
:101AC000507C2FE0714A1279072A02D1704A107CAB
:101AD00028E06E4A1279082A02D16D4AD07B21E0B3
:101AE0006A4A1279092A02D1694A907B1AE0674A48
:101AF00012790A2A02D1664A507B13E0634A1279AE
:101B00000B2A02D1624A107B0CE0604A12790C2A3F
:101B100002D15F4AD07A05E05C4A12790D2A01D1E0
:101B20005B4A907A002814DD102812DA594A115CB9
:101B3000002906DD584A527852085200564B5A7016
:101B4000A1E0554A527852085200521C524B5A702A
:101B500099E00028F4D1504A527852085200521CA1
:101B60004D4B5A708FE0FFE7474A12789207D20F29
:101B7000002AE5D0454A52790F2A02D1444A907D85
:101B800060E0424A52790E2A02D1414A907D59E0E2
:101B90003E4A52790D2A02D13D4AD07D52E03B4A5D
:101BA00052790C2A02D13A4A107E4BE0374A5279D8
:101BB0000B2A02D1364A507E44E0344A52790A2A2E
:101BC00002D1334A907E3DE0304A5279092A02D14F
:101BD0002F4AD07E36E02D4A5279082A02D12C4A6B
:101BE000107F2FE0294A5279072A02D1284A507FD4
:101BF00028E0264A5279062A02D1254A907F21E020
:101C0000224A5279052A02D1214AD07F1AE01F4A7E
:101C10005279042A03D11E4A2032107812E01B4A5E
:101C20005279032A03D11A4A203250780AE0174A1F
:101C30005279022A03D1164A2032907802E0144ADF
:101C40002032D078002815DD102813DA114A10321E
:101C5000115C002906DD104A5278520852000E4BE2
:101C60005A7010E00C4A527852085200521C0A4B2B
:101C70005A7008E0002806D1074A527852085200EC
:101C8000521C054B5A7070473C000020CC090020C4
:101C90006E010020C60800209C0700200D48007837
:101CA0000007C00F002806D00B480078400840000D
:101CB000094908700CE0074800784007C00F002869
:101CC00006D005480079282802DD2820024908713D
:101CD00070470000D4090020C008002010B50DF0A6
:101CE0000BF80CF0F9FFFD48006B002804D0FB480E
:101CF000006B401EF9490863F948007B032803DBA9
:101D0000F748407B042803DAF6484079012808D1D7
:101D1000F5480069002804D0F3480069401EF249E4
:101D20000861EE4800788007C00FF04909788907FC
:101D3000C90F88420BD1EE480078C007C00F0028B9
:101D40000ED1EB4800788007C00F002808D1E74883
:101D50004068002804D0E5484068401EE3494860D8
:101D6000E4484068002804D0E2484068401EE14949
:101D70004860DC48007AFF2804DADA48007A401C20
:101D8000D8490872D748407902287DD1DA4840699D
:101D9000DA49884204D2D8484069401CD649486193
:101DA000D5488069D549884204D2D3488069401C0F
:101DB000D1498861D048C069D049884204D2CE4810
:101DC000C069401CCC49C861CD48C068CB49884235
:101DD00004D2CB48C068401CC949C860C248C06A28
:101DE000002804D0C048C06A401EBF49C862BB4832
:101DF0002030007D002807DDB8482030007D401EDF
:101E0000C1B2B64820300175B94800788007C00FCC
:101E1000002876D0B1480078C007C00F00280CD049
:101E2000AE4800788007C00F002806D0B54800787B
:101E3000082188430830B3490870B2480078C007C9
:101E4000C00F002840D1AF4800780007C00F00281D
:101E500013D0AC488068A949884204D2A948806858
:101E6000401CA8498860A748C068A449884204D299
:101E7000A448C068401CA349C860A2480078400735
:101E8000C00F00281CD000E0C9E094480078C007CB
:101E9000C00F002810D0914800788007C00F00289C
:101EA0000AD098480069954988422AD29548006925
:101EB000401C9449086124E000209249086120E018
:101EC0000020904908611CE08E4840698B49884297
:101ED00004D28C484069401C8A494861894880691D
:101EE0008649884204D287488069401C85498861B8
:101EF0008448006A002804D08248006A401E814954
:101F00000862764800788007C00F00282AD07348FE
:101F1000806A002804D07148806A401E6F49886238
:101F200079484068002804D077484068401E7649C8
:101F300048606A48C06B002814D06848C06B401ED7
:101F40006649C8630846C06B00280BD168484078D2
:101F50000221884366494870084640780421884336
:101F600063494870604800798007C00F002827D077
:101F70005F4840780007C00F002821D163480078EF
:101F8000C007C00F00281BD161480078C007C00FF0
:101F9000002815D15F480078C007C00F00280FD176
:101FA0005D480078C007C00F002809D15B48007861
:101FB000C007C00F002803D100214B48416109E050
:101FC000494840694D49884204D247484069401C0D
:101FD000454948614448203000788007C00F0028F8
:101FE0000CD03E482030007B002807DD3B482030E5
:101FF000007B401EC1B23948203001733C48407814
:10200000C007C00F002830D0364840694449884294
:102010002BD234484069401C3249486125E03148A0
:102020004079012813D13048C06A002804D02E48D6
:10203000C06A401E2C49C8622A48C0682F4988429D
:1020400013D22848C068401C2649C8600DE02548C6
:102050004079032809D1234800692849884204D2DD
:1020600020480069401C1F49086128480078C007C3
:10207000C00F00280AD0254840682049884208D26D
:1020800022484068401C2149486002E000201F4966
:1020900048601F480078C007C00F00280AD01C48BD
:1020A00040681649884208D219484068401C1849BF
:1020B000486002E000201649486016480078C007D2
:1020C000C00F00282ED0134840680C4988422CD2FB
:1020D00010484068401C0F49486026E0C0080020B6
:1020E000900400209C0700200009002048000020E8
:1020F0003C00002080000020AC090020FFFF000011
:10210000A004002000080020500000204809002002
:102110005C09002070090020840900209809002033
:102120004019010000201549486015480078C00793
:10213000C00F00280AD0124840681249884208D2CD
:102140000F484068401C0E49486002E000200C49DE
:1021500048600D480078C007C00F00280AD00A4820
:1021600040680849884208D207484068401C064930
:10217000486002E000200449486010BD700900205A
:1021800084090020FFFF000098090020704700002C
:1021900010B5F6488079012805D1F549C8790CF0C9
:1021A0005BFD044604E0F24948780CF055FD044616
:1021B000F04800788007C00F002828D0EE4800784B
:1021C000C007C00F002822D1EC48C068FF215F3152
:1021D000884206DBEA48007904218843E84908710F
:1021E00015E0E748007904218843001DE44908719F
:1021F000E248C068FF212D31884208DAE0480079C2
:1022000040084000DE4908710021DD480161D748DF
:102210004079032803D10421D9484171C5E2D5484A
:1022200000784006C00F002808D00121D448417131
:1022300000798843401CD2490871B6E2CE48007844
:10224000C007C00F002806D0CD48007940084000E4
:10225000CB490871A9E2CA4800784007C00F00289E
:1022600009D1C2488079012805D0C54800794007C6
:10227000C00F002864D00221C1484171BB48807959
:102280000128CBD1BD480078C007C00F00280BD172
:10229000BC480078C007C00F002805D1BA480078B4
:1022A000C007C00F002807D0B5480079400840009B
:1022B000401CB349087178E2AE4840780007C00F6F
:1022C0000028ABD0AE484069B049884207D2AC483C
:1022D000007940084000401CA949087165E2A848FF
:1022E0004069AB49884206D2A548007940084000C1
:1022F000A349087159E2A2484069A649884215D20B
:102300009F48007940084000401C9D4908710846DC
:10231000C078002891D108464078C8709548407828
:10232000102188431030934948703EE29448007968
:10233000400840009249087194499148416134E253
:102340008C480078C009002809D093484178C079AA
:10235000401C814203DC01218948417125E2854806
:102360004078C007C00F002810D005218448417173
:102370008A4800780007C00F00289CD18048007967
:1023800040084000401C7E4908710EE27948007800
:10239000C007C00F002819D078480078C007C00FC8
:1023A00000280BD177480078C007C00F002805D15E
:1023B00075480078C007C00F002807D07048007922
:1023C00040084000401C6E490871EEE16948007801
:1023D0008007C00F00284BD071480078C007C00F9D
:1023E000002817D165480078C007C00F002811D118
:1023F00064480078C007C00F00280BD169480078F6
:10240000C007C00F002805D15F480078C007C00F83
:1024100000282DD05A4840695C49884215D3584855
:1024200040696149884209D20221554841710079C9
:1024300040084000401C5249087110E050480079A3
:10244000400840004E49087109E04D4800690028E5
:1024500005D14B4800794008400049490871484877
:1024600040694B49884290D34910454841619CE1FD
:10247000404840780007C00F002876D03D480078DB
:10248000C007C00F00283FD002213D48417140697C
:102490003E49884207D23A48007940084000401C33
:1024A0003749087181E1364840693949884206D286
:1024B00033480079400840003149087175E13048DF
:1024C00040693449884215D22D48007940084000BF
:1024D000401C2B4908710846C0780028C7D108461F
:1024E0004078C87023484078102188431030214933
:1024F00048705AE12248007940084000204908719C
:1025000022491F48416150E11A4800788007C00FF6
:102510000028ACD01A4840691C49884215D30221D2
:102520001748417140692049884207D21448007910
:1025300040084000401C124908714FE010480079E3
:10254000400840000E49087148E0134800788007B1
:10255000C00F00282AD00948C068FF212D318842C9
:102560003CDDC8210648016138E040E09C070020BE
:10257000AC0900203C000020000800205C0900207D
:102580000009002070090020980900207017000041
:10259000E02E000038310000C0080020D4090020DF
:1025A00048090020840900209C180000894800691F
:1025B000002805D187480079400840008549087106
:1025C0008548C068FF212D31884207DC0021814801
:1025D00001610079400840007E4908717D484069EA
:1025E0007E49884285D349107A484161DDE07948C7
:1025F0004078042871D17A480078C007C00F0028BD
:102600002FD07448807873494978884203D1714843
:10261000407903280DDA7348C16820461E30814294
:1026200003DB04216B484171A8E003216948417133
:10263000A4E068484079042809D16A48C168204666
:102640000A30814202DC03216248417196E065480C
:10265000C16820461E30814202DB04215D48417181
:102660008CE05F4800788007C00F00284AD05948A6
:10267000807858494978884209D1564840790328DA
:1026800005DB54480078C006800F022826DA51483E
:102690000078182188434F490978C906890F491CD9
:1026A000C9001822114008434A490870C006800F2B
:1026B000022863DB0846007818218843103045491A
:1026C00008704848C068FA2803DB0421414841717A
:1026D00054E003213F48417150E017E03D48407904
:1026E000042807D13F48C068E62847DA0321394863
:1026F000417143E03B48C068FA283FDD042135487A
:1027000041713BE003213348417137E03148407863
:10271000002820D13448C07E4007400F03000CF051
:10272000E1FF0504080C1014180004202949487022
:1027300010E00320274948700CE00220254948702A
:1027400008E001202349487004E003202149487033
:1027500000E000BF12E01F484078012803D10421A7
:102760001C4841710AE01B484078022803D103212C
:102770001848417102E00221164841711B48407916
:10278000022812D11A480078C007C00F00280CD1C7
:10279000184800780007C00F002806D10D480079BE
:1027A00040084000401C0B4908710A4880780949DC
:1027B0004978884209D007484079032805DA054856
:1027C000007818218843034908700248407801497D
:1027D000887010BD000900205C090020E02E000078
:1027E0003C00002048090020740800209C070020BD
:1027F00000080020D409002064480078C007C00FFA
:10280000002803D0042162484170BEE0614800788E
:102810004006C00F002805D15F4800784007C00F70
:10282000002803D001215A484170AEE05948007891
:102830008007C00F00282BD05848C068322813DB0F
:1028400057484078282803DC0221514841709CE019
:10285000534840783C2803DA03214D48417094E006
:1028600003214B48417090E04D484078282803DC14
:1028700003214748417088E0494840783C2803DA02
:1028800003214348417080E00421414841707CE0CD
:1028900040480078C007C00F002876D03D484078F7
:1028A0004006C00F002807D03948407801286CD076
:1028B00002213748417068E036484078C007C00FB1
:1028C000002803D00521324841705EE03348C068DB
:1028D000FF21AF31884213DB31484078282803DCE0
:1028E00004212B48417050E02D4840783C2803DA01
:1028F00004212748417048E004212548417044E004
:102900002648C068FF215F31884213DB24484078A5
:10291000282803DC03211E48417036E02048407817
:102920003C2803DA03211A4841702EE0042118489C
:1029300041702AE01948C068C82813DB184840785D
:10294000282803DC0221124841701EE01448407818
:102950003C2803DA03210E48417016E003210C489D
:10296000417012E00E484078282803DC0221084814
:1029700041700AE00A4840783C2803DA0221044802
:10298000417002E0022102484170704700080020B7
:10299000200900203C000020D409002084090020E8
:1029A000C008002010B507F06BF904F05DFF07F0D8
:1029B00039FC07F0D7FB07F04BF9174840790300C3
:1029C0000CF090FE0504070A0D10130000F02EFA1B
:1029D0000CE000F009FB09E000F080FB06E000F0ED
:1029E00033F903E001F0F4FB00E000BF00BF04F0A6
:1029F00009FB07F011FC07F009FC07F0E9F807F004
:102A00007DFC07F087F805F0EBFA07F09FF804F07B
:102A1000EFFD0AF041FD10BD9C0700200EB54F48A8
:102A2000007800F0ABF802904C480078FDF712FEF9
:102A30004A480078002807D1494848490978405C4D
:102A40001E3840B2019012E044480078032807D1B4
:102A5000434842490978405C143840B2019006E08E
:102A60003F483E490978405C143840B201903D48E7
:102A70003A490978405C009038480078002811D124
:102A80006846007A384908706846007A00285AD1AA
:102A9000684604214156344801726846007832493C
:102AA000487250E02D480078012811D16846007A1C
:102AB0002E4908706846007A002844D168460421EF
:102AC00041562A48017268460078284948723AE01F
:102AD00022480078032821D16846007A24490870EA
:102AE0006846007A002808D16846042141562048EB
:102AF0000172684600781E4948721D480078C00778
:102B0000C00F1C4908706846007A00281BD118487D
:102B1000007A08721648407A487214E00F4800782C
:102B2000022810D16846007A134908706846007A76
:102B3000002808D16846042141560F4801726846B2
:102B400000780D49487205480078401CC0B203491E
:102B50000870042801DB002008700EBD1A00002058
:102B600012000020160000209809002070090020A3
:102B700048090020840900205C09002001462C48F7
:102B8000405C002832D188002A4A10582A4A9042D4
:102B900010D90020294A50542948405C401CC0B23A
:102BA000274A5054012840DB002050540120204A7D
:102BB00050543AE088001F4A10580F2810D20020C5
:102BC0001F4A50541D48405C401CC0B21B4A505420
:102BD00001282ADB002050540120154A505424E0DB
:102BE0000020164A5054164A50541EE08800114ADC
:102BF0001058232816D3880010580F4A143A9042D0
:102C000010D81048405C401CC0B20E4A50540528F1
:102C10000BDB00205054094A5054094A5054044ACE
:102C2000505402E00020074A50540148405C70476D
:102C30001B00002070040020D70F00001F000020A0
:102C4000230000202700002010B56E4800794008BE
:102C50004000401C6B49087108462030007840084D
:102C60004000401C203108706748807900280DD151
:102C70006648007840084000401C644908700846D7
:102C8000007802218843614908700CE05F480078B1
:102C9000400840005D4908700846007802218843DA
:102CA000801C5A49087059480078C007C00F002896
:102CB00026D03C205649C87056480078400840004D
:102CC00054490870524800788007C00F002807D088
:102CD0005148007840084000401C4F49087005E00A
:102CE0004D480078400840004B49087000204A4990
:102CF00048604A48007840084000484908701CE095
:102D0000424800788007C00F002816D03220404982
:102D1000C8704048007840084000401C3D49087099
:102D20003D480078400840003B4908703B48007827
:102D300040084000401C394908703448007840077A
:102D4000C00F32490978C907C90F884209D12F48F5
:102D500000780007C00F2D4909788907C90F8842FC
:102D600006D02B480078400840002949087006E04A
:102D70002748007840084000401C25490870002082
:102D8000234988622648007804218843001D24498D
:102D900008700846007840084000401C0870214830
:102DA000007804218843001D1E49087008460078F9
:102DB00040084000401C08701448007804218843F3
:102DC0001249097889000422114008430F4908700C
:102DD00008460078082188430C4909788907C90FFB
:102DE000C9000822114008430849087006480069D4
:102DF0000D49884204D300200349086104F090FF84
:102E000010BD0000000900209C0700203C000020AD
:102E1000C008002048000020500000207D00002055
:102E200058000020E80900205046000010B51F207F
:102E300007F09AFA6748007A03287DDB09F0C4FCA2
:102E400009F0AEFD6448807A644988716248C17AAD
:102E50006248C1716048017B604801725E48417BF5
:102E60005E4841725C48817B5C4881725A48C17BF4
:102E70005A48C1725848017C584801735648417CF1
:102E8000564841735448817C544881735248C17CF0
:102E90005248C1735048017D504801744E48417DED
:102EA0004E4841744C48817D4C4881744A48C17DEC
:102EB0004A48C1744848017E484801754648417EE9
:102EC000464841754448807E444988754248C17EE1
:102ED0004248C1754048017F404801763E48417FE5
:102EE0003E4841763C48817F3C4881763A48C17FE4
:102EF0003A48C1763848203001783848017736485A
:102F00002030417835484177334820308178334844
:102F1000817731482030C1783048C1772E48203041
:102F200001792E48163081722B48203041792B4888
:102F30001630C172284800E04BE0203081792748E4
:102F40001630017324482030C1792448163041736B
:102F500021482030017A2148163081731E482030E4
:102F6000417A1E481630C1731A48407901280BD0A7
:102F70001B4800784007C00F002805D11948007889
:102F80004006C00F002819D0FF2091301349086374
:102F90000120104948711349097840229143114A90
:102FA00011704906C90F89000422114008460C49D6
:102FB0000978914301430A4A117006E0E120C000FC
:102FC000064908630220034948710BF07DFE03F0B7
:102FD00013FE10BD9C0700204E010020C0080020F9
:102FE0003C0900203C00002000203349C8723348CF
:102FF00000784008400031490870084600780221F6
:1030000088432E49087008460078102188432B49D0
:10301000087008460078202188432849087028480D
:10302000007840084000264908702648007940088A
:1030300040002449087108462030007840084000CC
:103040002031087020480078400840001E49087070
:103050001E480078400840001C4908701C48007851
:10306000400840001A4908701A480078400840009B
:1030700018490870002012498862104800784021E1
:1030800088430E490870002013498861C8610D48C3
:1030900000798007C00F002802D100210948C160D3
:1030A0000848203000788007C00F002802D1002196
:1030B0000448816270470000AC0900203C000020F9
:1030C000C008002000090020500000204800002017
:1030D0007D000020580000209C07002010B5FA4811
:1030E000007840084000F8490870F8480079400826
:1030F0004000401CF549087108462030007840081F
:103100004000401C20310870F148807905287DD2AC
:1031100043007B449B885B009F44040068010103DB
:103120003B0326060024EB480078C007C00F0028A8
:103130000FD1E9480078C007C00F002803D1E74944
:1031400048780BF089FDE348407802218843E14943
:103150004870E048007840084000401CDD49087095
:103160000846007802218843DA490870084600784A
:1031700010218843D74908700846007820218843E9
:10318000D449087008468078C007C00F00280FD0C7
:10319000D24840781D2803D0D04840781E2807D157
:1031A000CF48007840084000401CCD490870DCE062
:1031B000C9480078C007C00F002817D1C948007857
:1031C000C007C00F002811D1C7480078C007C00F42
:1031D00000280BD1C5480078C007C00F002805D1D2
:1031E000C3480078C007C00F002870D00020BC4939
:1031F0008862BC480078C007C00F002805D1BA48D3
:103200000078C007C00F002808D000E0FEE3B448F3
:10321000007840084000B2490870A6E0B448007841
:10322000C007C00F00281CD0B1484068B14988428F
:1032300007D2AB48007840084000401CA8490870FD
:1032400093E0AB484068AC49884206D2A448007875
:1032500040084000A249087087E00020A449486067
:1032600083E09D480078C007C00F002805D19F4823
:103270000078C007C00F002877D097480078C007B3
:10328000C00F002828D0944840689C49884212D238
:103290009348007840084000401C9149087008207D
:1032A000487108464179801D405C8D498870084608
:1032B0008078C87059E0884840689149884207D2B0
:1032C0008748007840084000854908704DE026E0B6
:1032D00000208149486048E084480078C007C00F5A
:1032E000002842D0814840688449884207D27C48FF
:1032F000007840084000401C7949087035E07B4860
:1033000040687F49884206D27548007840084000EE
:103310007349087029E000207449486025E06C4832
:10332000007A0A2821DB6B4840780007C00F00288C
:103330001BD16A48C07A01280BDB6848C07A07288D
:1033400007DA6748007840084000401C644908706C
:103350000BE0634800788007C00F002805D1604863
:103360000078400840005E4908705D480078C0075A
:10337000C00F002811D158480078C007C00F00289E
:103380000BD15A480078C007C00F002805D1584813
:103390000078C007C00F002807D04C4800794008CB
:1033A0004000401C4949087105E048480079400840
:1033B0004000464908714D480078C007C00F0028FA
:1033C00005D1474800788007C00F002806D14D4836
:1033D0000078400840004B49087006E049480078F2
:1033E00040084000401C47490870FDE3002439486C
:1033F000007840084000401C3649087008460078B4
:103400000221884333490870084600781021884318
:103410003049087008460078202188432D490870FB
:103420002D480078C007C00F002817D12D4800781C
:10343000C007C00F002811D12B480078C007C00F6B
:1034400000280BD129480078C007C00F002805D1FB
:1034500027480078C007C00F00287DD000202049F1
:10346000886220480078C007C00F002805D11E4898
:103470000078C007C00F002806D01948007840081F
:1034800040001749087009E119480078C007C00FCB
:1034900000283DD0164840681649884207D2104897
:1034A000007840084000401C0D490870F6E01048C4
:1034B00040681149884227D20948007840084000F6
:1034C00007490870EAE000007D00002000090020A4
:1034D0009C0700203C00002048090020AC09002087
:1034E000C00800205C090020700900208409002029
:1034F00098090020701700002823000050460000A3
:1035000008520000500000200020FE494860C5E03D
:10351000FD480078C007C00F002805D1FB4800789F
:10352000C007C00F0028AED0F7480078C007C00F12
:10353000002829D0F4484068F549884214D2F5485B
:10354000007840084000401CF2490870082048718B
:1035500008464179801D00E039E0405CED49887003
:1035600008468078C87099E0E7484068EA49884290
:1035700006D2E848007840084000E64908708DE02F
:103580000020E149486089E0E0480078C007C00FAA
:1035900000280BD0DD484068DD49884207D2DD486D
:1035A000007840084000401CDA49087076E0D748AF
:1035B0004068D949884206D2D64800784008400081
:1035C000D44908706AE00020D049486066E0CE48DF
:1035D000C068B42813DBCF48007840084000401C86
:1035E000CC490870CD48407808218843CB494870C1
:1035F000CB48007880218843C94908702AE0C24836
:10360000C068A02814DCC348007840084000C149C5
:103610000870C2484078082188430830BF49487084
:10362000BF480078802188438030BD49087011E090
:10363000BB480078C00900280CD0B6480078400884
:103640004000B4490870B5484078082188430830E4
:10365000B2494870B34840788007C00F00281DD198
:10366000B048407802218843801CAE494870A64883
:103670000A214156092903DA0720AB49C8710DE038
:10368000A1480A214156202903DD1E20A649C87100
:1036900004E09D48807A801EA349C8719D48007847
:1036A000C007C00F002811D197480078C007C00F8D
:1036B00000280BD195480078C007C00F002805D11D
:1036C00090480078C007C00F002807D097480079BD
:1036D00040084000401C9549087105E09348007976
:1036E000400840009149087188480078C007C00F21
:1036F000002805D1874800788007C00F002806D130
:103700008B480078400840008949087006E08848E6
:10371000007840084000401C85490870FAE3002406
:103720007E480078400840007C49087008460078D0
:10373000022188437949087008460078102188439F
:103740001030764908700846007820218843734974
:1037500008700846407808218843704948706D48D1
:103760000078400840006B490870002088626F486C
:1037700020300078400840006C492031087000215A
:103780006A48C1626A480078400840006849087089
:10379000C0E35D480078C007C00F002817D1654816
:1037A0000078C007C00F002811D163480078C00717
:1037B000C00F00280BD155480078C007C00F002863
:1037C00005D150480078C007C00F002827D05348C3
:1037D0000078202188435149087008460078400845
:1037E0004000087008460078022188434B49087061
:1037F0000846007810218843103048490870454831
:103800000078400840004349087049480078400863
:1038100040004749087000203E4988628BE23F48DB
:1038200000788006C00F002852D13C48007840083C
:1038300040003A4908700846007802218843374919
:1038400008700846007810218843344908702E48D3
:10385000C068FA2806DB0846007840084000401C93
:1038600008702DE02848C068C8280FDB2B48007876
:1038700010218843103029490870264800784008F4
:103880004000244908700020886219E01E48C06882
:10389000BE280EDB21480078102188431F4908709C
:1038A0001C480078400840001A49087000208862CF
:1038B00006E01A48007802218843801C17490870E6
:1038C000164800782021884320301449087032E2DD
:1038D00012480078C007C00F00286FD00D4800784C
:1038E00040084000401C0B4908701448007840080C
:1038F00040001249087007480078C007C00F002830
:1039000026D01DE0980900204809002084090020E5
:1039100050460000C0080020085200003C00002073
:10392000E40700209C070020AC09002000090020CB
:10393000500000205C090020700900204800002091
:10394000FD48007940084000401CFB49087105E033
:10395000F948007940084000F7490871F7480078B5
:10396000C007C00F002805D1F54800788007C00FB8
:10397000002806D1F348007840084000F14908705B
:1039800006E0F048007840084000401CED4908700F
:10399000ED4800784006C00F002810D0EB48806941
:1039A000EB49884201D314240AE0E8488069E949D8
:1039B000884201D30A2403E0002401E03BE0002414
:1039C000E548C1682046E630814227DCDF482030E8
:1039D000407A401CC1B2DD4820304172642921DBAD
:1039E00000214172D848007840084000D64908704C
:1039F00008460078102188431030D3490870D64813
:103A0000C1682046C83081420CDC00E081E2CE482B
:103A1000007820218843CC49087003E00021CB487E
:103A2000203041720021C948293041708170C17035
:103A3000017141717FE1C44800788007C00F002800
:103A40007ED0BF48007840084000401CBC49087048
:103A5000C248007840084000401CC0490870B9487E
:103A6000007840084000B7490870B5480078C007A2
:103A7000C00F002820D0B24800788007C00F00286F
:103A800005D1B748C068FF215F31884205DAAC48EC
:103A900000788007C00F002807D0A74800794008A9
:103AA0004000401CA449087110E0A3480079400878
:103AB0004000A149087109E09F480069002805D12C
:103AC0009D480079400840009B4908719E48007855
:103AD0004006C00F002819D09C488069A14988423F
:103AE00002D31D24E44312E0984880699849884233
:103AF00002D31324E4430AE094488069954988423C
:103B000002D30924E44302E0002400E000249248A8
:103B1000C1682046BE30814220DB8C482930407885
:103B2000401CC1B289482930417064291ADB002148
:103B3000417085480078400840008349087000E0E3
:103B40001AE008460078022188437F490870084639
:103B50000078102188437C49087003E000217B48ED
:103B6000293041700021794820304172093081703C
:103B7000C17001714171DEE0714800784008400079
:103B80006F49087075480078400840007349087014
:103B90006C480078400840006A4908706A4800781C
:103BA0004006C00F00280FD06848806968498842E5
:103BB00001D3142409E0654880696649884201D32D
:103BC0000A2402E0002400E000245F480078C006D8
:103BD000C00F002844D06048C1682046FA308142B6
:103BE0001EDB5A48293000E094E18078401CC1B2C5
:103BF00056482930817064290DDB002181705248BC
:103C00000078102188435049087008460078400821
:103C10004000401C087000214C482930C17019E058
:103C20004D48C068BE2815DC48482930C078401C83
:103C3000C1B246482930C170642907DB0021C17038
:103C400041480078102188433F49087000213F48CF
:103C50002930817000213D4829300171417164E0B3
:103C6000394800784006C00F002819D037488069CD
:103C70003C49884202D31D24E44312E03348806962
:103C80003349884202D31324E4430AE02F48806971
:103C90003049884202D30924E44302E0002400E0D2
:103CA00000242D48C068C82817DB2848293000792F
:103CB000401CC1B2254829300171642908DB00216C
:103CC0000171214800781021884310301E49087086
:103CD00000211E482930417122E01F48C16820465A
:103CE000B430814217DC194829304079401CC1B2F8
:103CF000164829304171642908DB002141711248BE
:103D0000007802218843801C0F49087000210F4869
:103D10002930017104E000210C4829300171417102
:103D200000210A4829308170C170002107482030E5
:103D3000417209304170EDE0000900208409002043
:103D4000C0080020500000203C0000209C070020FC
:103D500040190100A08C0000480900204800002004
:103D60005C090020E0A501000024FE4800788007DF
:103D7000C00F00280FD1FC480078C007C00F0028F2
:103D800003D1FA4948780AF067FFF64840780221E3
:103D90008843F4494870F348007840084000F149EE
:103DA00008700846007802218843801CED4908709D
:103DB0000846007810218843EA49087008460078D0
:103DC00020218843E749087008468078C007C00F63
:103DD00000280BD0E5484078112807D1E448007846
:103DE00040084000401CE24908704CE0DE48007882
:103DF000C007C00F002817D1DE480078C007C00FE9
:103E0000002811D1DC480078C007C00F00280BD172
:103E1000DA480078C007C00F002805D1D8480078DC
:103E2000C007C00F002808D0D148007840084000E3
:103E3000CF4908700020886225E0D248007A0A281D
:103E400021DBC84840780007C00F00281BD1C748B5
:103E5000C07A01280BDBC548C07A072807DAC448B6
:103E6000007840084000401CC14908700BE0C04881
:103E700000788007C00F002805D1BD4800784008B1
:103E80004000BB490870BA480078C007C00F00283E
:103E900020D0B74800788007C00F002805D1B5486A
:103EA000C068FF215F31884205DAB1480078800799
:103EB000C00F002807D0B448007940084000401CDB
:103EC000B149087110E0B048007940084000AE499F
:103ED000087109E0AC480069002805D1AA480079BA
:103EE00040084000A8490871A848007840084000F0
:103EF000401CA6490870A648007840084000A44924
:103F00000870A448007840084000401CA14908708F
:103F100000E000BF00BF9B488079012805D09E4883
:103F20000078802188439C4908709648007A0A28C6
:103F30007EDB8D480078C007C00F00287BD18D48FC
:103F40000078C007C00F002875D18B480078C007E3
:103F5000C00F00286FD189480078C007C00F002823
:103F600069D187480078C007C00F002863D17D4819
:103F70000078C007C00F002805D17A480078800774
:103F8000C00F002857D07A4800788007C00F00285B
:103F900051D17648C07A07284DDA7448C07A002893
:103FA00049D07D488078052845D0704820308079F8
:103FB000012840D07848C07805283CD06B48203094
:103FC00000790E2837D0694820300079012832D096
:103FD0006648203000790F282DD064482030407981
:103FE000012828D0614820304079102823D06A4821
:103FF000407805281FD06848407905281BD06648BE
:10400000C079052817D06448007A052813D0624883
:104010000078C00900280ED15548007840084000BB
:10402000401C534908704F4840780821884300E0FD
:1040300001E04C4948704B4800784007C00F49499F
:104040000978C907C90F884211D04648007800078F
:10405000C00F444909788907C90F884207D04448EE
:1040600000784008400042490870002088623D48BE
:1040700000780007C00F3B4909788907C90F8842BB
:104080000BD0384800788007C00F002805D13F4882
:104090000078400840003D4908704048007800071B
:1040A000C00F002844D03248007840084000304912
:1040B00008703548007940084000334908710846C7
:1040C00020300078400840002031087030480078E7
:1040D000400840002E4908702C48007840084000F5
:1040E0002A4908702B480078400840002949087088
:1040F0002B480078400840002949087000201C49DE
:104100008862184840780821884316494870084654
:1041100040780221884313494870084640780421BA
:10412000884310494870002010494861C86188617F
:104130000C480078042188430A4909788900042240
:104140001140084307490870084600780007C00F6F
:1041500009788907C90F884228D00248007880076B
:10416000C00F1FE03C00002048090020AC090020DF
:10417000C00800205C09002070090020840900208C
:10418000980900209C07002000090020480000201A
:10419000500000207D000020E4070020D40900200A
:1041A00058000020002801D102F026FD07480078C1
:1041B00008218843054909788907C90FC9000822E1
:1041C000114008430149087010BD00003C00002068
:1041D0007047000010B56C48007B002806D001280D
:1041E00020D002282ED0032871D13BE06748007808
:1041F000802188438030654908700020624948600A
:104200008860634800788007C00F002809D06148A3
:1042100000788007C00F002803D00846007B401CB0
:104220000873ADE05848406857498968884208D10A
:10423000594855494860002088600846007B401C6A
:1042400008739DE0504840684F498968884208D10A
:1042500000204D494860886048730846007B401C38
:1042600008738DE04848407B03000BF03BFA0805DB
:10427000223132507073808543484068002817D13E
:1042800041488068002813D13F48807B002806D130
:1042900001203D498873FF205630486003E0FF202D
:1042A0005630394948603848407B401C364948738D
:1042B00063E035484068002808D13348806800280A
:1042C00004D13148407B401C2F49487355E056E0EB
:1042D00053E0324840784006C00F002804D13048EF
:1042E00040682949886008E02B48274988602748AA
:1042F00000781021884325490870234840682249E6
:104300008968884202D104201F49487335E0234858
:1043100040784006C00F002818D121488068002846
:1043200014D01F488068184988600846406889682A
:10433000884202D100201A49886006201249487339
:1043400012480078102188431049087015E009F0E0
:1043500029FA12E00C4840680B498968884205D167
:1043600004200949487300200D49886005E00120B8
:1043700040020549886000E000BF00BF00E000BFC8
:1043800000BF09F041F910BD900400202F0000206B
:104390007400002064000020050900003C0000209B
:1043A000A004002010B505F04BFB0B4A12789207D1
:1043B000D10F0A4A12789207D00F002207F0B6FBFD
:1043C0004000022108400446044800788843204306
:1043D0000249087010BD00002D0000202E000020B2
:1043E00010B50246072A00DA07221E2A00DD1E2227
:1043F00014460D3C23000BF075F9140B0D0F11132F
:104400001517191B1D1F21232527292B2D2F31336C
:10441000372027E0392025E03B2023E03D2021E024
:104420003F201FE040201DE042201BE0442019E017
:10443000462017E0482015E0492013E04B2011E00A
:104440004D200FE04F200DE051200BE0522009E0FD
:10445000542007E0562005E0582003E0592001E0F1
:10446000482000BF00BF002901D0431CD8B2094B2F
:104470009B79042B06D1372800DA3720512807DD35
:10448000512005E0402800DA40205A2800DD5A205B
:1044900010BD00009C0700200146002038291DD0D7
:1044A0003A291BD03C2919D03E2917D0412915D0D3
:1044B000432913D0452911D047290FD04A290DD0BF
:1044C0004C290BD04E2909D0502907D0532905D0AB
:1044D000552903D0572901D05A2900D1012070470E
:1044E00010B5FE48C0788006C00F00287ED0FC487A
:1044F000407903287BD1FB48007840084000F94907
:1045000009788907C90F0843F649087008460078FA
:1045100002218843F3490870F348C0780821884392
:10452000F0490978C900082211400843EE49C870D3
:104530000846C07E08218843EA490978C90011402D
:104540000843E949C876E7480078C007C00F00284B
:1045500005D10320E5494873E548E6494860E64847
:10456000007804218843E44909780907C90F8900C4
:10457000042211400843E0490870084600780821E9
:104580008843DD490870D848007C10218843DA4907
:1045900009784907C90F0901102211400843D2497F
:1045A000087408461A30C07904218843D249097832
:1045B0004907C90F8900042211400843CA491A312A
:1045C000C871C648007804218843C449097809079E
:1045D000C90F890011400843C04908700846007897
:1045E00008218843BD490870BF4801E006E21EE08B
:1045F000C07B10218843B94909784907C90F0901CF
:10460000102211400843B849C87308461A30C079CF
:1046100010218843B14909784907C90F09011140A0
:104620000843B1491A31C8710220AD494871AB48FD
:10463000C0784007C00F002806D0A948407901285B
:1046400008D102F055FC05E0A5484079022801D1C7
:1046500003F066FB0024A14800790007000F030067
:104660000BF040F80933060F183333332A21330097
:104670009B488079042803D004209949887101243B
:1046800024E097488079012803D00120944988715B
:1046900001241BE092488079002803D00020904933
:1046A0008871012412E08E488079032803D003200A
:1046B0008B498871012409E089488079022803D058
:1046C000022087498871012400E000BF00BF002C50
:1046D0004BD000208949C872087389480078400887
:1046E00040008749087008460078022188438449C1
:1046F00008700846007810218843814908700846F0
:104700000078202188437E490870084640780821B7
:1047100088437B494870084600784021884378499F
:104720000870084640784008400048706C4880791E
:10473000012817D173480A214156092903DA0720B5
:104740006E49C87111E06F480A214156202903DDE6
:104750001E206A49C87108E06A48807A801E67494D
:10476000C87102E018206549C8715C484079C006EC
:10477000C00E1E21081AC4B260484078A04205D07D
:104780005F484078400840005D4948705348407990
:10479000C006C00E1E21081A5849487008464078C5
:1047A0001E2801DD1E20487054484078072802DA90
:1047B000072052494870524800784006C00F002830
:1047C00003D04E4840784D494872454880790028CA
:1047D00003D14A4840784949C87041488079042843
:1047E00003D1464840784549487100203C498861DA
:1047F00000243A4880794007400F03000AF072FF16
:1048000007052A0E172A20292A003648407804284E
:1048100000D001240420334948701CE0314840781E
:10482000032800D0012403202E49487013E02D48AE
:104830004078022800D0012402202A4948700AE06A
:1048400028484078012800D00124012025494870DB
:1048500001E000E000BF00BF002C16D028484078DF
:10486000082188432649487008460078402188433B
:1048700023490870084640784008400048701948AD
:1048800000781821884317490870144880798006F9
:10489000400F072807D11348007840084000401C0B
:1048A0001049087005E00F480078400840000D49A5
:1048B000087000240948C07B4007400F002823D11E
:1048C0000F4800784006C00F002800D001240C4893
:1048D0000078402188430A49087023E0E809002055
:1048E0009C0700200009002074080020900400208C
:1048F00005090000A004002058000020AC09002099
:104900003C000020480900203D4800784006C00FC8
:10491000002800D101243A480078402188434030E3
:1049200037490870002C2AD0354800784006C00F5F
:10493000002808D03348407F3349487231481A3044
:104940008079887209E03048407A2F4948700846DB
:10495000807A88700020487288722948407808213F
:10496000884327494870084640784008400048700E
:10497000002026498861C8612549887009E0254AD8
:10498000D2795207D10F204A5078FFF729FD1E49EE
:1049900088701B4800784006C00F002803D01A48D2
:1049A0008078194988721B48C0790007C00F002819
:1049B00007D01748007840084000401C1449087090
:1049C00005E01348007840084000114908700E487F
:1049D0000078400840000F49097A0906C90F0843CA
:1049E000094908700B48C078202188430949C870DC
:1049F00004480078082188430249087010BD00006F
:104A00003C00002074080020AC0900209C07002016
:104A100000090020E809002070B50120FB49087753
:104A20000021FA484177FA48807903000AF05AFEDB
:104A300005040C141C242C00F448807F000900019C
:104A4000401CF249887720E0F048807F000900018F
:104A5000C01CEE49887718E0EC48807F000900010F
:104A6000801CEA49887710E0E848807F000900014F
:104A7000401DE649887708E0E448807F000900018E
:104A8000001DE249887700E000BF00BFE0484079A0
:104A9000002803D0DE484079012806D1DB48807F1A
:104AA00010218843D949887706E0D848807F1021B3
:104AB00088431030D5498877D448807F20218843A7
:104AC000D24988770846807F40218843CF4988773C
:104AD0000846807F80218843CE494978C9018022D9
:104AE00011400843C9498877CB484078072811DB33
:104AF000C94840781E280DDC0846C07F40094001A7
:104B0000C54949781E22511AC906C90E0843BF4932
:104B1000C87706E0BD48C07F400940010830BB4966
:104B2000C877BE484078042806D1B848C07FE02145
:104B30008843B649C8771EE0B8484078012807D1B5
:104B4000B248C07FE0218843A030B049C87712E066
:104B5000B2484078022807D1AC48C07FE0218843A2
:104B60006030AA49C87706E0A848C07FE0218843A2
:104B70004030A649C877A6488079012805D1A348C6
:104B8000C07FE0218843A149C877A2480078400649
:104B9000C00F002806D09D48C07FE02188434030E8
:104BA0009A49C8779C4880789D490978884210D0F6
:104BB000994880789A490978884203DD012099490B
:104BC000087002E000209749087093488078944963
:104BD00008709448007801280FD18F498878FFF732
:104BE0005BFCC307DB0F89481C300079400840009C
:104BF000184386491C31087107E084481C3000794D
:104C00004008400081491C31087180481C300079FF
:104C1000022188437D491C3108710846007904212E
:104C200088437A491C310871084600790821884375
:104C30007A4909784907C90FC90008221140084379
:104C400072491C31087108460079102188436F4968
:104C50001C31087108460079202188436B491C31BA
:104C6000087108460079402188436F490978890115
:104C700040221140084365491C31087108460079FB
:104C800080218843684909788907C90FC9018022B2
:104C9000114008435D491C3108710846407980087D
:104CA00080004871084640790421884357491C31E7
:104CB0004871084640790821884354491C3148719D
:104CC000084640791021884350491C3148710846F4
:104CD0004079202188435149097849012022114017
:104CE00008434A491C3148710846407940218843AD
:104CF0004A490978890140221140084343491C313F
:104D00004871084640798021884343490978C901A0
:104D10008022114008433D491C31487142480078C7
:104D20004007C00F00280FD03F480078C007C00FD1
:104D3000002809D03C4948683C21FBF769FAC1B218
:104D400032481C30817103E0002130481C308171F1
:104D5000354800784007C00F00280ED03248007850
:104D6000C007C00F002808D02F4948683C21FBF736
:104D70004FFA26481C30C17103E0002123481C3043
:104D8000C171294800784007C00F00280FD026487D
:104D900000788007C00F002809D0234948683C21CB
:104DA000FBF736FAC1B219481C30017203E000214A
:104DB00016481C3001721C4800784007C00F0028BC
:104DC0000ED0194800788007C00F002808D0164977
:104DD00048683C21FBF71CFA0C481C30417203E088
:104DE00000210A481C304172002108481C308172A1
:104DF0002430007E042819D104481C30807A4008F1
:104E00004000401C01491C31887238E0E80900204C
:104E10009C0700203C000020AC0900200009002075
:104E200089000020880000203C090020FE48007E08
:104E3000032809D1FC482438807A02218843801C49
:104E4000F949243988721AE0F748007E022809D10E
:104E5000F5482438807A04218843001DF24924391A
:104E600088720CE0F048007E012808D1EE48243812
:104E7000807A082188430830EB4924398872EA484F
:104E80002438807A10218843E749243988720846FB
:104E9000807A20218843E449243988720846807A40
:104EA00040218843E049243988720846807A80216D
:104EB0008843DD4940390978C906C90FC9018022F4
:104EC00011400843D849243988720021D648243833
:104ED000C172C07A40084000D3492439C872D3480F
:104EE0000078C006C00F002807D00846C07A02210B
:104EF0008843801CCC492439C872CB482438C07AF6
:104F000004218843C8492439C872C9480078C006BA
:104F1000C00F002805D1C7480078C006C00F002880
:104F200008D0C1482438C07A082188430830BE49D7
:104F30002439C872BF4800784006C00F002808D046
:104F4000B9482438C07A102188431030B649243932
:104F5000C872B94800790007C00F002808D0B248CD
:104F60002438C07A202188432030AF492439C872C0
:104F7000B2480078C007C00F002808D0AA482438DB
:104F8000C07A402188434030A7492439C872AC48D0
:104F90000078C007C00F002808D0A3482438C07A82
:104FA000802188438030A0492439C872A348C4684E
:104FB00019204001844200DD0446C720C0438442DA
:104FC00000DA0446C834A005010E9748243801735E
:104FD000407B0C218843A1000C22114008439249D8
:104FE000243948730846407B80088000487308468F
:104FF000407BC02188438C49243948739048C46859
:1050000019204001844200DD0446C720C043844289
:1050100000DA0446C83484482438407B3021884371
:1050200021013022114008437F4924394873A005EB
:10503000010E7D4824384176824800784006C00F32
:10504000002809D078482438807BC008C000401C64
:1050500075492439887307E073482438807BC00879
:10506000C0007149243988736F482438807B7821C7
:10507000884328306C49243988730846807B802116
:105080008843803068492439887300216648243871
:10509000C1736D48007801280FD16C498878FFF7FB
:1050A000FBF9C307DB0F6048243800794008400053
:1050B00018435D492439087107E05B4824380079BA
:1050C000400840005849243908715E48007840067D
:1050D000C00F002823D05D48457A5A480078C007A1
:1050E000C00F002805D0681CC5B21E2D0CDD1E2582
:1050F0000AE0544800788007C00F002804D0681EDA
:10510000C5B2072D00DA072547482438C07B40097F
:105110004001E906C90E084343492439C8730021F8
:10512000414824380174474800784006C00F0028E1
:1051300023D04648457A43480078C007C00F00286E
:1051400005D0A81CC5B21E2D0CDD1E250AE03D4869
:1051500000788007C00F002804D0A81EC5B2072D14
:1051600000DA072530482438007C40094001E90670
:10517000C90E08432C492439087400212A482438D0
:1051800041748174C174017541758175C175017671
:105190002C4800784006C00F00287AD02B48457A6A
:1051A00028480078C007C00F002805D0A81CC5B249
:1051B0001E2D0CDD1E250AE0224800788007C00F56
:1051C000002804D0E81EC5B2072D00DA07251648CE
:1051D0002438407C40094001E906C90E08431249C1
:1051E000243948740846807C40094001E906C90E0C
:1051F00008430D49243988740846C07C40094001A1
:10520000E906C90E084308492439C8740846007DD8
:1052100040094001E906C90E0843034924390875CD
:105220000846407D400913E0280A00203A0000208B
:105230003B0000209C0700200009002048090020B6
:105240005C0900203C00002088000020AC09002000
:105250004001E906C90E0843FE4948750846807DAD
:1052600040094001E906C90E0843FA498875084615
:10527000C07D40094001E906C90E0843F549C875DB
:105280000846007E40094001E906C90E0843F1497D
:1052900008760021EF488176C1760177EE49C8682B
:1052A0000A21FAF7B5FFC1B2EA484177EB48C46872
:1052B0000A212046FAF7B6FF0446502C00DD5024A0
:1052C0001320C043844200DA04461434E148847752
:1052D000E348C4680A212046FAF7A4FF0446502C8C
:1052E00000DD50241320C043844200DA0446143405
:1052F000D848C477DB48C4680A212046FAF792FFF1
:105300000446502C00DD50241320C043844200DAB0
:1053100004461434CF4820300470CF49886A0A21EB
:10532000FAF776FFC1B2CB4820304170CE484178C1
:10533000C84820308170CC484078002808D1C54842
:105340002030C07801090901C2482030C17008E04E
:10535000C0482030C078010909010F31BD48203014
:10536000C170BC482030C07840218843BF490978CB
:105370008907C90F8901402211400143B5482030F7
:10538000C170C078802188430146B2482030C17086
:1053900000210171B6480078C006C00F002805D171
:1053A000B4480078C006C00F002808D0A9482030B3
:1053B000007941084900491CA64820300171A548E0
:1053C00020300079022188430146A2482030017133
:1053D000A3480078C007C00F002808D09D4820309F
:1053E000007904218843011D9A48203001719948B1
:1053F0002030007908218843014696482030017109
:105400000079102188430146924820300171934869
:105410000078C007C00F002808D08E4820300079DF
:105420002021884341188B48203001718D48007835
:10543000C007C00F002808D08648203000794021DE
:105440008843411883482030017187480078C0069E
:10545000C00F002808D07F48203000798021884381
:1054600041187C482030017100217A482030417178
:105470007948203000780007C00F002808D0754810
:105480002030407941084900491C72482030417160
:105490007948407AF12808D16E48203040790221BD
:1054A0008843811C6B482030417172480078800627
:1054B000C00F002808D06748203040790421884375
:1054C000011D644820304171624820304079082134
:1054D000884301465F48203041714079102188435C
:1054E00001465C48203041714079202188430146C3
:1054F0005848203041715F4800784007C00F0028AD
:1055000008D0544820304079402188434118514800
:1055100020304171574800780007C00F002808D09C
:105520004C48203040798021884341184948203038
:105530004171002147482030817150480078800730
:10554000C00F002808D04348203080794108490026
:10555000491C404820308171484800784007C00FFE
:10556000002808D03B482030807902218843811CE4
:10557000384820308171414800780007C00F00286A
:1055800008D034482030807904218843011D3148F7
:10559000203081713A488079012808D12D48203087
:1055A00080790821884341182A4820308171344885
:1055B000407901280FD03248407910280BD030486C
:1055C0000079012807D02E4800790F2803D02C48F5
:1055D00000790E2808D11F48203080791021884397
:1055E00041181C48203081711F4800788006C00F88
:1055F000002808D01748203080792021884341189E
:10560000144820308171184800780007C00F002826
:1056100008D01048203080794021884341180D4837
:10562000203081710B4820308079802188430146E9
:105630000848203081710021C17112480078C007EC
:10564000C00F002822D003482030C07904218843AD
:10565000011D19E0040A002000090020840900202F
:105660007009002098090020C00800204800002090
:105670003A0000209C07002074080020E407002066
:10568000CC0900205C0900206348C17163480078A0
:10569000C007C00F002806D05F48C07908218843A2
:1056A00041185D48C1715E4800788006C00F00282F
:1056B00006D05948C0791021884341185648C17115
:1056C0005848407C4007C00F002806D05248C07997
:1056D0004021884341185048C171FF214E48017252
:1056E00041728172C172017341738173C17301741C
:1056F00041748174C174017541758175C1750176FC
:1057000000214176484800780007C00F002806D0E5
:105710004148407E41084900491C3F484176434882
:10572000407AE42806D13C48407E02218843811C0F
:10573000394841763848407E04218843014636483E
:105740004176407E08218843014633484176407EB9
:105750001021884301463048417635480078C0071B
:10576000C00F002806D02C48407E202188434118D5
:1057700029484176002128488176807E40084000F3
:10578000274909788907C90F0143234881762948A9
:10579000806A19214901884207D91F48807E022169
:1057A000884301461C48817606E01B48807E022122
:1057B0008843811C184881761748807E04218843DD
:1057C000014615488176807E082188431A49097868
:1057D0008907C90FC9000822114001430E4881768C
:1057E000807E1021884341180B488176807E2021DD
:1057F0008843411808488176807E402188434118BB
:1058000005488176807E8021884341180248817650
:105810000021C17670BD0000240A00204809002044
:10582000C00800203E080020D40900207408002091
:1058300000080020000900205000002070B56D48CD
:1058400000784007C00F002819D06B480079322833
:1058500005DA69480079401C674908710FE00020AB
:1058600065490871634800780421884361490870DC
:105870000846007802218843801C5E4908705D4814
:1058800000788007C00F00286FD00F215B4800F020
:105890002BFE054659480078542866D15748407871
:1058A000442862D15548C07BA84255D1002405E068
:1058B0005248005D52490855601CC4B2102CF7DBF9
:1058C0004F4880780C2835D14D48C0784D498876AE
:1058D0004B4801794B48C17649484179494801779D
:1058E00047488179474841774548C179454881779C
:1058F0004348017A4348C1774148417A41481A30C8
:1059000081713F48817A3F481A30C1713C48C17A61
:105910003C481A3001723A48017B3A481A304172C9
:105920003748417B37481A3081723548817B35488A
:105930001A30C1720020304988602E480078082152
:1059400088432C490870084600781021884329496B
:10595000087000202849C860264800780221884342
:105960002449087000202449C870234880681928F9
:1059700004D3022020490870002048701E48806827
:10598000401C1D4988604B21C900884222D308462B
:10599000194988601748007808218843083015495C
:1059A00008701548C068401C1349C8604B210901A4
:1059B000884209D308461049C8600E480078102173
:1059C000884310300B49087002200B4908700020F2
:1059D00048700EE0074800780821884305490870A0
:1059E00008460078102188430249087000200249C7
:1059F000C86070BD3A000020B406002000070020F7
:105A0000100700207408002010B554203649087093
:105A1000442048701820887034488078C870334813
:105A2000C0780871314800794871304840798871F0
:105A30002E488079C8712D48C07908722B48007AA9
:105A400048722A48407A88722848807AC872274863
:105A5000C07A08732548007B48732448407B8873CC
:105A60002248807BC8732148C07B08741F48007C93
:105A700048741E48407C88741C48807CC8741B484D
:105A8000C07C08751948007D48751848407D8875A8
:105A90001648807DC8751548C07D08761348007E7D
:105AA00048761248407E88761B210F4800F01CFD86
:105AB0000D49C876002408E00B48005D0C490855E4
:105AC000002009490855601CC4B21C2CF4DB0948AD
:105AD0000078002806D10848007840084000401CA3
